:020000040800F2
:1000000000800120E1310008E5300008E7300008F9
:10001000E9300008EB300008ED3000080000000077
:10002000000000000000000000000000EF300008A9
:10003000F130000800000000F3300008F53000083F
:100040003132000831320008313200083132000804
:1000500031320008313200083132000831320008F4
:1000600031320008313200083132000831320008E4
:1000700031320008313200083132000831320008D4
:1000800031320008313200083132000831320008C4
:1000900031320008313200083132000831320008B4
:1000A00031320008313200083132000831320008A4
:1000B0003132000831320008313200083132000894
:1000C0003132000831320008313200083132000884
:1000D0003132000831320008313200083132000874
:1000E0003132000831320008313200083132000864
:1000F0003132000831320008313200083132000854
:100100003132000831320008313200083132000843
:100110003132000831320008313200083132000833
:100120003132000831320008313200083132000823
:100130003132000831320008313200083132000813
:100140003132000831320008313200083132000803
:1001500031320008313200083132000831320008F3
:1001600031320008313200083132000831320008E3
:10017000313200083132000831320008000000003E
:080180003132000831320008A1
:1001900010B5054C237833B9044B13B10448AFF3C1
:1001A00000800123237010BD7000002000000000BB
:1001B000F43A000808B5034B1BB103490348AFF3F9
:1001C000008008BD0000000074000020F43A000820
:1001D00001F0FF01102A2BDB10F0070F08D010F8F8
:1001E000013B013A8B422DD010F0070F42B3F6D1FC
:1001F000F0B441EA012141EA014122F007047FF015
:1002000000070023F0E80256083C85EA010586EA6B
:10021000010685FA47F5A3FA87F586FA47F6A5FAA7
:1002200087F68EB9EED1F0BC01F0FF0102F00702B3
:1002300032B110F8013B013A83EA010313B1F8D15E
:100240000020704701387047002D06BF354603383F
:10025000073815F0010F07D1013015F4807F02BF78
:10026000013015F4C03F0130F0BC0138704700BFC9
:100270007BB972B90029BEBF00204FF0004106E0F3
:1002800008BF00281CBF6FF000414FF0FF3000F0A6
:10029000C5B9ADF1080C6DE904CE002909DB002BCE
:1002A0001ADB00F04DF8DDF804E0DDE9022304B0CC
:1002B0007047404261EB4101002B1BDB00F040F82E
:1002C000DDF804E0DDE9022304B0404261EB4101C6
:1002D000524263EB43037047524263EB430300F027
:1002E0002FF8DDF804E0DDE9022304B0404261EBC1
:1002F00041017047524263EB430300F021F8DDF8FF
:1003000004E0DDE9022304B0524263EB430370478B
:1003100053B94AB9002908BF00281CBF4FF0FF316C
:100320004FF0FF3000F07AB9ADF1080C6DE904CE62
:1003300000F006F8DDF804E0DDE9022304B07047C0
:100340002DE9F0478C460D460446089E002B51D1FE
:100350008A4217466DD9B2FA82FEBEF1000F0BD069
:10036000CEF1200C01FA0EF520FA0CFC02FA0EF781
:100370004CEA050C00FA0EF44FEA174A250CBCFBB8
:10038000FAF81FFA87F90AFB18CC45EA0C4508FB76
:1003900009F3AB420AD9ED1908F1FF3280F023814D
:1003A000AB4240F22081A8F102083D44ED1AA4B20C
:1003B000B5FBFAF00AFB105544EA054400FB09F9C5
:1003C000A14509D9E41900F1FF3380F00A81A14564
:1003D00040F2078102383C44A4EB090440EA08409B
:1003E0000021002E61D024FA0EF4002334607360E3
:1003F000BDE8F0878B4207D9002E54D0002186E853
:1004000021000846BDE8F087B3FA83F1002940F0E7
:100410008E80AB4202D3824200F2FA80841A65EBEE
:1004200003050120AC46002E3FD086E81010BDE841
:10043000F08712B90127B7FBF2F7B7FA87FEBEF1D2
:10044000000F34D1EB1B3A0C1FFA87FC0121B3FBE0
:10045000F2F8250C02FB183345EA03450CFB08F3C0
:10046000AB4207D9ED1908F1FF3002D2AB4200F2DE
:10047000D1808046ED1AA3B2B5FBF2F002FB105515
:1004800043EA05440CFB00FCA44507D9E41900F13C
:10049000FF3302D2A44500F2B8801846A4EB0C0446
:1004A00040EA08409DE731463046BDE8F087CEF18E
:1004B000200405FA0EF307FA0EF720FA04F83A0CB6
:1004C00025FA04F448EA0308B4FBF2F14FEA1845B0
:1004D00002FB11441FFA87FC45EA044501FB0CF3BB
:1004E000AB4200FA0EF409D9ED1901F1FF3080F0AA
:1004F0008A80AB4240F2878002393D44EB1A1FFAF2
:1005000088F5B3FBF2F002FB103345EA034500FB2C
:100510000CF3AB4207D9ED1900F1FF386FD2AB42B3
:100520006DD902383D44EB1A40EA01418FE7C1F131
:10053000200722FA07F88B4005FA01F448EA030382
:1005400020FA07FE4FEA134CFD404EEA040EB5FBBD
:10055000FCF94FEA1E440CFB19551FFA83F844EAD4
:10056000054509FB08F4AC4202FA01F200FA01FA6F
:1005700008D9ED1809F1FF3043D2AC4241D9A9F1B5
:1005800002091D442D1B1FFA8EFEB5FBFCF00CFB6F
:1005900010554EEA054400FB08F8A04507D9E418B9
:1005A00000F1FF3529D2A04527D902381C4440EA82
:1005B0000940A4EB0804A0FB02894C45C6464D4601
:1005C00015D312D056B1BAEB0E0364EB050404FA4E
:1005D00007F7CB401F43CC40376074600021BDE873
:1005E000F0871846F8E69046E0E6C245EAD2B8EB56
:1005F000020E69EB03050138E4E72846D7E74046D9
:1006000091E78146BEE7014678E702383C4445E77A
:10061000084608E7A8F102083D442BE7704700BFF1
:1006200038B50F4B0546186808B9012038BD0D4A8A
:100630004FF47A73B3FBF0F31068B0FBF3F000F003
:1006400097F804460028F0D10F2DEED8024629462F
:100650004FF0FF3000F058F8034B20461D6038BDC6
:10066000000000200800002004000020094A136850
:1006700043F4807310B50320136000F033F80020BA
:10068000FFF7CEFF044618B902F014FD204610BD56
:100690000124FBE700200240034A0449136809686B
:1006A0000B441360704700BF9C0000200000002036
:1006B000014B1868704700BF9C00002038B5044605
:1006C000FFF7F6FF631C1CBF054B1B68054618BFF0
:1006D000E418FFF7EDFF401B8442FAD838BD00BF95
:1006E00000000020074AD36823F4E0631B041B0CBE
:1006F00043F0BF63000243F4003300F4E0600343BF
:10070000D360704700ED00E0174B30B5DC68C4F3F0
:100710000224C4F10703251D042B28BF0423062D42
:100720004FF0010505FA03F303F1FF338CBF033CDF
:1007300000241940A14005FA04F4013C224000289D
:1007400042EA01024FEA0212ADBF00F1604000F040
:100750000F00064B00F56140B5BFD2B2D2B21A54B9
:1007600080F8002330BD00BF00ED00E014ED00E094
:100770000138B0F1807F0AD2064B074A5860F02159
:1007800082F823100020072298601A607047012029
:10079000704700BF10E000E000ED00E02DE9F04FF1
:1007A00085B00B68DFF8A891674C01930023019A8C
:1007B000DA4002D105B0BDE8F08F0127019A9F40D1
:1007C00012EA070E00F0B1804A6822F0100808F122
:1007D000FF35012D4FEA430C12D88668032505FA30
:1007E0000CF526EA0506CD6805FA0CF5354385605B
:1007F0004668C2F3001526EA07069D40354345606A
:1008000002F00306032E07D1C56A25EA0707C2F3E3
:10081000C0059D402F43C7620325C76805FA0CF544
:10082000ED4307EA050A8F6807FA0CF747EA0A075B
:10083000B8F1020FC76016D14FEAD30A00EB8A0A5B
:1008400003F0070BDAF820704FEA8B0B4FF00F081C
:1008500008FA0BF827EA08080F6907FA0BF747EAC6
:100860000807CAF82070076806FA0CF63D403543C1
:100870000560D50059D5D9F8605045F00105C9F893
:100880006050D9F8605023F0030606F1804605F069
:10089000010506F58036039503F0030C039DB5684A
:1008A0004FEA8C0C0F2707FA0CF7B0F1904F25EAAE
:1008B00007073CD0254DA8423BD005F58065A842EE
:1008C00039D005F58065A84237D005F58065A84286
:1008D00035D005F58065A84233D005F58065A8427E
:1008E00014BF0725062505FA0CF53D43B5602568BC
:1008F0006FEA0E06D70354BF35404EEA0505256062
:100900006568970354BF35404EEA05056560A568E4
:10091000D70254BF35404EEA0505A560E56892024E
:1009200054BF35404EEA0505E56001333FE7002539
:10093000D9E70125D7E70225D5E70325D3E7042525
:10094000D1E70525CFE700BF0004014000040048BF
:10095000001002400AB181617047816270470368EC
:100960009A69910744BF00229A629A69D2075EBFD2
:100970009A6942F001029A61704730B5039C05689C
:100980002343640D04F4806444F07F7444F45834C9
:100990006868C1F3090144F47F74194344F0030407
:1009A00041EA024120EA04042143696030BD2DE997
:1009B000F041069F0446884616461D462268936904
:1009C00038EA03030CBF01230023B34202D0002006
:1009D000BDE8F0816B1CF2D0FFF76AFEC01B8542B8
:1009E00001D3002DEAD1636C43F02003636420231C
:1009F00084F84130002384F8423084F840300120EC
:100A0000BDE8F081036870B50446986910F01000E5
:100A10000D46164616D170BD691C14D0FFF748FE6E
:100A2000801B854200D36DB9636C43F0200363647F
:100A3000202384F84130002384F8423084F8403089
:100A4000012070BD236899698A06E5D5102220250A
:100A5000DA612046DD61FFF782FF2268536823F0E8
:100A6000FF7323F48B3323F4FF7323F001035360EC
:100A7000636C43F00403636484F84150DBE770B5B2
:100A800004460D46164623689B699B0701D5002046
:100A900070BD324629462046FFF7B4FFA0B96A1C54
:100AA000F1D0FFF705FE801B854201D3002DEAD16E
:100AB000636C43F020036364202384F841300023F7
:100AC00084F8423084F84030012070BDF7B5099EAB
:100AD0001F46164B0093054614464FF08073FAB23A
:100AE000FFF74BFF324608992846FFF7C8FF10B1C1
:100AF000012003B0F0BD012F2B680CD1E4B29C6241
:100B0000089B0096002280212846FFF750FF003006
:100B100018BF0120EDE7220A9A620899324628465A
:100B2000FFF7ADFF0028E3D12B68E7E70020008046
:100B3000F7B5099E1F46164B009305461446002341
:100B4000FAB2FFF71AFF324608992846FFF797FFD7
:100B500010B1012003B0F0BD012F2B680CD1E4B21D
:100B60009C62089B0096002240212846FFF71FFF49
:100B7000003018BF0120EDE7220A9A620899324638
:100B80002846FFF77CFF0028E3D12B68E7E700BF8A
:100B90000020008070B504460D46164623689B6908
:100BA0009B0601D5002070BD324629462046FFF73E
:100BB00029FF90B9FFF77CFD801B854201D3002DF2
:100BC000ECD1636C43F020036364202384F841304C
:100BD000002384F8423084F84030012070BD10B505
:100BE000044600284AD090F8413003F0FF021BB9B8
:100BF00080F8402002F026F8242384F8413023684E
:100C0000E1681A6822F001021A60626822F07062DC
:100C10001A619A68012922F400429A60A26824D1DC
:100C200042F400429A605A68616942F0007242F4EC
:100C300000425A60DA6822F40042DA6022690A430C
:100C4000A16942EA0122DA60216AE2690A431A6074
:100C50001A6842F001021A6000202023606484F8C0
:100C60004130206384F8420010BD42F4044202295E
:100C70009A6004BF4FF400625A60D4E7012010BDAF
:100C80002DE9F743984690F84130202B04460E4654
:100C9000914640F0848090F84030012B7FD00127AE
:100CA00080F84070FFF704FD1923054600903A468E
:100CB0004FF400412046FFF77AFE18B1012003B03F
:100CC000BDE8F083212384F84130102384F84230BA
:100CD0006064A4F82A80638DC4F824909BB2FF2B33
:100CE0006063304B26D9FF22228500934FF080733A
:100CF00031462046FFF741FE638D0A999BB22A4692
:100D00002046FBB9FFF746FF0028D7D123682021F2
:100D1000D9615A6822F0FF7222F48B3222F4FF72FA
:100D200022F001025A6084F8411084F8400084F8EF
:100D30004200C4E7628D009392B222854FF00073A7
:100D4000D2B2D5E7FFF79BFE0028B7D1636A2268CD
:100D500013F8011B91626362638D228D013B9BB28C
:100D60006385638D013A92B29BB22285002BC3D07A
:100D7000002AC1D100950A9B80212046FFF717FE6B
:100D800000289BD1638D9BB2FF2B03D9FF222285C4
:100D90000090ABE7628D009092B22285CEE70220F0
:100DA0008DE700BF002000802DE9F04F9B4690F8B2
:100DB000413085B0202B04460F460392BDF83CA07D
:100DC000DDF8408040F0A5800E9B13B1BAF1000F12
:100DD00006D14FF400736364012005B0BDE8F08FC5
:100DE00090F84030012B00F09480012580F84050AD
:100DF000FFF75EFC1923009006462A464FF4004197
:100E00002046FFF7D4FD81460028E5D1212384F850
:100E10004130402384F842300E9B6064636260631B
:100E2000A4F82AA00196CDF800805B46039A3946C3
:100E30002046FFF74BFE10B184F84090CCE7638D5D
:100E40009BB2FF2B55D9FF22228500904FF0807373
:100E500039462046FFF791FD324641462046FFF7CE
:100E60000EFE0028B8D1636A226813F8011B916254
:100E70006362638D228D013B9BB26385638D013A72
:100E800092B29BB22285ABB1A2B9009643468021B3
:100E90002046FFF78CFD00289ED1638D9BB2FF2B6F
:100EA0002FD9FF22228500904FF0807339462046CB
:100EB000FFF763FD638D9BB2002BCDD132464146D7
:100EC0002046FFF767FE002886D123682021D961DC
:100ED0005A6822F0FF7222F48B3222F4FF7222F061
:100EE00001025A6084F8411084F8400084F84200FE
:100EF00073E7628D009092B222854FF00073D2B2F8
:100F0000A6E7628D009092B222854FF00073D2B2B4
:100F1000CCE7022061E700002DE9F04F9B4690F8F6
:100F2000413085B0202B04460F460392BDF83CA00B
:100F3000DDF8408040F0A9800E9B13B1BAF1000F9C
:100F400006D14FF400736364012005B0BDE8F08F53
:100F500090F84030012B00F09880012580F8405037
:100F6000FFF7A6FB1923009006462A464FF40041DE
:100F70002046FFF71CFD81460028E5D1222384F896
:100F80004130402384F842300E9B606463626063AA
:100F9000A4F82AA00196CDF800805B46039A394652
:100FA0002046FFF7C5FD10B184F84090CCE7638D73
:100FB0009BB2FF2B364B58D9FF22009322854FF06E
:100FC000807339462046FFF7D8FC0096434600223E
:100FD00004212046FFF7EBFC0028B5D12268636AA4
:100FE000526A1A70636A228D01336362638D013B1A
:100FF0009BB26385638D013A92B29BB22285ABB1FD
:10100000A2B90096434680212046FFF7D0FC002875
:101010009AD1638D9BB2FF2B2FD9FF22228500909E
:101020004FF0807339462046FFF7A7FC638D9BB2D3
:10103000002BCAD1324641462046FFF7ABFD0028BF
:1010400082D123682021D9615A6822F0FF7222F4EC
:101050008B3222F4FF7222F001025A6084F84110B0
:1010600084F8400084F842006FE7628D009392B2EA
:1010700022854FF00073D2B2A3E7628D009092B246
:1010800022854FF00073D2B2CCE702205DE700BFAB
:10109000002400802DE9FF471D460023039390F8AC
:1010A0004130202B044690467DD103689B6913F4A0
:1010B000004378D190F84020012A74D0012280F8B2
:1010C0004020C1F30906242280F8412046F420592B
:1010D0004364E3682268012B06BF46F0007343F4C3
:1010E00000534B465360FFF7E3FA074623689A69BB
:1010F0009B69C2F34012C3F3001302B96BB12368BA
:101100009A69009712F010022B4624D12021204624
:10111000FFF74DFCA8B101201AE06B1CE6D0FFF7E9
:10112000C7FAC01B854201D3002DDFD1202384F8EC
:101130004130636C43F020036364002384F8403043
:10114000E9E722682023D36184F8413084F8400025
:1011500004B0BDE8F087002220212046FFF727FCDD
:1011600002460028D7D1236810214FF0200AD96108
:10117000C3F81CA0039941450ED1596841F4804140
:101180005960204600972B465146FFF710FC002877
:10119000C1D12368C3F81CA0039B01330393039BB5
:1011A000984596D8C2E70220D2E790F84120D2B203
:1011B000202A10B51DD190F84030012B19D02423DE
:1011C00080F8413003681C6824F001041C601C682E
:1011D00024F480541C601C6821431960196841F094
:1011E00001011960002380F8412080F84030184642
:1011F00010BD022010BD10B590F84140E4B2202C83
:101200001CD190F84030012B18D0242380F84130B5
:1012100003681A6822F001021A601A6822F47062E8
:1012200042EA012119601A6842F001021A600023A3
:1012300080F8414080F84030184610BD022010BDB3
:10124000024B186800F4C060704700BF0070004097
:10125000174B1A68B0F5007F02F4C0621CD1B2F5DA
:10126000007F15D01A6822F4C06242F400721A603E
:10127000104A116832224A430F49B2FBF1F2194673
:1012800001325869400500D522B94B695B050DD480
:1012900000207047013AF4E7B2F5806F1FBF1A686B
:1012A00022F4C06242F480621A60F1E703207047C2
:1012B000007000400800002040420F0037B51E4D6E
:1012C000AB6DDA00044618D5FFF7BAFFB0F5007F22
:1012D00023D1802C29D9A02C8CBF02200120174AB1
:1012E000136823F0070303431360136803F0070335
:1012F000181A18BF012003B030BDAB6D43F0805306
:10130000AB65AB6D03F080530193019BFFF798FF32
:10131000AB6D23F08053AB65D8E7802C07D808D09D
:10132000A4F1700358425841D9E70020D7E70320C1
:10133000D5E70220D3E700BF0010024000200240A2
:10134000224B9A68D96812F00C0205D00C2A15D1EC
:1013500001F00301012918D119681D48090755BF7B
:10136000D3F894101968C1F30321C1F3031150F8A5
:1013700021004AB30C2A09D000207047042A22D049
:10138000082A144818BF002070470020DA6802F0CD
:101390000302022A15D00F49032A08BF0846DA685B
:1013A000D968DB68C3F34163C1F30621C2F30212BB
:1013B0000133484301325B00B0FBF2F0B0FBF3F0C5
:1013C00070470548EBE70448704700BF0010024033
:1013D000C43B000800127A000024F4002DE9F74312
:1013E000054618B9012003B0BDE8F083A74C036897
:1013F000A668E768D80606F00C0607F003073DD597
:101400001EB10C2E66D1012F64D12368990702D535
:10141000AB69002BE6D02368286A1A0756BFD4F8B8
:10142000943023681B0903F0F00383423BD2FFF79B
:1014300045FF0028D6D1236843F0080323602368C2
:101440002A6A23F0F003134323606368EA6923F4F4
:101450007F4343EA02236360FFF772FFA3688C4A6D
:10146000C3F30313D35C03F01F03D840894B186008
:10147000894B1868FFF7D4F80028B4D12B68D90736
:101480005FD42B689A0700F19E802B68190700F142
:10149000D2802B685A0700F10181AB6A002B40F023
:1014A0006A8100209FE7236843F0080323602368D4
:1014B00023F0F003034323606368EA6923F47F4366
:1014C00043EA02236360002EC6D1FFF7F7FE00282F
:1014D000C2D087E7AB691BB3236843F001032360E5
:1014E000FFF7E6F8804623689B0711D5236843F091
:1014F0000803236023682A6A23F0F0031343236060
:101500006368EA6923F47F4343EA02236360B5E733
:10151000FFF7CEF8A0EB08000228E4D9032062E729
:10152000236823F001032360FFF7C2F88046236895
:101530009807A3D5FFF7BCF8A0EB08000228F6D95E
:10154000ECE7082E03D00C2E08D1032F06D1236818
:101550009B0396D56B68002B93D143E76B68B3F57B
:10156000803F10D1236843F480332360FFF7A0F855
:1015700080462368980384D4FFF79AF8A0EB08000C
:101580006428F6D9CAE7B3F5A02F04D1236843F441
:1015900080232360E6E7226822F4803222602268FA
:1015A00022F480222260002BE0D1FFF781F88046F0
:1015B000236899037FF565AFFFF77AF8A0EB080081
:1015C0006428F5D9AAE7042E03D00C2E10D1022FDF
:1015D0000ED123685A0503D5EB68002B3FF402AF08
:1015E00063682A6923F0F85343EA026363604CE7B7
:1015F000EB687BB1236843F480732360FFF758F8EE
:10160000074623685B05EBD4FFF752F8C01B02289E
:10161000F7D983E7236823F480732360FFF748F842
:101620000746236858057FF530AFFFF741F8C01B28
:101630000228F6D972E76B699BB1D4F8943043F075
:101640000103C4F89430FFF733F80746D4F8943018
:101650009B073FF51EAFFFF72BF8C01B0228F5D9FB
:101660005CE7D4F8943023F00103C4F89430FFF71A
:101670001FF80746D4F8943098077FF50AAFFFF7B4
:1016800017F8C01B0228F5D948E700BF0010024038
:10169000AA3B00080800002004000020A36DD90028
:1016A00029D4A36D43F08053A365A36D03F0805349
:1016B0000193019B4FF00108894F3B68DA051DD566
:1016C000AB68012B2BD1D4F8903043F00103C4F860
:1016D0009030FEF7EDFF41F288390746D4F890309C
:1016E000980742D5B8F1000F3FF4D7AEA36D23F0B1
:1016F0008053A365D1E64FF00008DDE73B6843F473
:1017000080733B60FEF7D4FF81463B68DB05D7D48E
:10171000FEF7CEFFA0EB09000228F6D9FEE6052B66
:1017200006D1D4F8903043F00403C4F89030CAE7EF
:10173000D4F8902022F00102C4F89020D4F8902030
:1017400022F00402C4F89020002BC2D1FEF7B0FFB3
:1017500041F288390746D4F890309907C2D5FEF790
:10176000A7FFC01B4845F6D9D8E6FEF7A1FFC01B6E
:101770004845B3D9D2E6022B40F08F80E368EA6A8D
:1017800003F00301914224D1296B03F07002013967
:10179000B2EB011F1DD1696B03F4FE42B2EB012FC6
:1017A00017D1AA6B073A03F4003118BF0122914206
:1017B0000FD1EA6B520803F4C001013AB1EB425F6A
:1017C00007D12A6C520803F0C063013AB3EB426FB1
:1017D0004AD00C2E3FF406AE23685A013FF502AE04
:1017E0002368DB003FF5FEAD236823F080732360A0
:1017F000FEF75EFF064623689F012FD4E268394B4F
:101800001340EA6A13436A6B43EA02232A6B013AE4
:1018100043EA0213AA6B120943EA4243EA6B5208F5
:10182000013A43EA42532A6C5208013A43EA4263BE
:10183000E360236843F080732360E36843F08073C0
:10184000E360FEF735FF0546236898013FF529AEB2
:10185000FEF72EFF401B0228F6D95FE6FEF728FFB1
:10186000801B0228C7D959E6236899013FF519AEB4
:10187000236843F080732360E36843F08073E36080
:10188000FEF716FF054623689A013FF50AAEFEF7FC
:101890000FFF401B0228F6D940E60C2E3FF4A2AD04
:1018A000236823F080732360236813F0205F02BF56
:1018B000E36823F00303E360E36823F0887323F411
:1018C0008033E360FEF7F4FE054623689B017FF555
:1018D000E8ADFEF7EDFE401B0228F6D91EE600BF7C
:1018E000007000408C809DF92DE9F0410E460446C1
:1018F00010B90120BDE8F081414A136803F00703E5
:101900008B422AD32368D90732D421688A075CD452
:101910003B4A136803F007039E425ED311F0040FA5
:10192000384D65D10B0706D5AB68226923F46053A7
:1019300043EAC203AB60FFF703FDAB68324AC3F36F
:101940000313BDE8F041D35C03F01F03D8402F4BD5
:1019500018602F4B1868FEF763BE136823F0070367
:101960000B431360136803F007039942C1D1C9E721
:101970006268244D032A2B681BD113F0007FB8D076
:10198000AB6823F003031343AB60FEF791FE41F213
:1019900088380746AB68626803F00C03B3EB820F2C
:1019A000B3D0FEF785FEC01B4045F3D90320BDE848
:1019B000F081022A02D113F4003FE0E712B913F0DC
:1019C000020FDCE713F4806FD9E70E4AA068936832
:1019D00023F0F003034393609AE7136823F00703AF
:1019E00033431360136803F007039E4281D195E7E8
:1019F000AB68E26823F4E0631343AB6092E700BF97
:101A00000020024000100240AA3B0008080000200D
:101A100004000020054B064A9B68C3F30223D35CF5
:101A2000044A106803F01F03D840704700100240BA
:101A3000BA3B000808000020054B064A9B68C3F328
:101A4000C223D35C044A106803F01F03D8407047D8
:101A500000100240BA3B000808000020F8B5454BD2
:101A6000DA6812F0030F05460E461C4600682AD0BD
:101A7000DA6802F0030282423CD1002A3AD0DB68E5
:101A80006A68C3F302130133934233D1236823F00E
:101A900080632360FEF70CFE074623681A0132D4E8
:101AA000AF68002E36D0012E50D12269286922F469
:101AB000C002400822F4FE42013842EA072242EA0C
:101AC0004052226132E0022810D0032814D00128AD
:101AD00010D11B689F0738D5E3686A6823F0730349
:101AE000013A184340EA0210E060CFE71B6813F4A4
:101AF000806FF1D10120F8BD1A689103ECD41B6806
:101B000013F4802FF5E7FEF7D3FDC01B0228C4D9DC
:101B10000320F8BD2169EB6821F41F3121F44071E5
:101B200041EA07211B0941EA43412161236843F04F
:101B300080632360FEF7BCFD064623681B0113D5B6
:101B40002369AA69134323610020F8BD23696869EA
:101B500023F0C063400823F4FE43013843EA07231F
:101B600043EA40632361E1E7FEF7A2FD801B022800
:101B7000E3D9CDE700100240F8B53D4BDA6812F02A
:101B8000030F05460E461C46006828D0DA6802F0AE
:101B9000030282423AD1002A38D0DB686A68C3F374
:101BA00002130133934231D1236823F08053236021
:101BB000FEF77EFD074623689A0030D4A868002E01
:101BC00034D06369296923F0C063490823F4FE43D4
:101BD000013943EA002343EA4163636132E00228AA
:101BE00010D0032814D0012810D11B689F0738D5C6
:101BF000E3686A6823F07303013A184340EA02106D
:101C0000E060D1E71B6813F4806FF1D10120F8BDCB
:101C10001A689103ECD41B6813F4802FF5E7FEF7E4
:101C200047FDC01B0228C6D90320F8BD6269EB68D6
:101C300022F41F3222F4407242EA00221B0942EAD7
:101C400043426261236843F080532360FEF730FD16
:101C5000064623689B0005D563696A69134363617F
:101C60000020F8BDFEF724FD801B0228F1D9DBE738
:101C7000001002402DE9F347066816F4006604469A
:101C800024D0416EB1F5800F2CD002D8C1B101260D
:101C90001CE0B1F5000F0DD0B1F5400FF7D14D4A62
:101CA000616ED2F8883023F440030B43C2F88830C9
:101CB00000260BE0474AD36843F48033D360EEE755
:101CC0000430FFF7CBFE06460028E8D02368D8048E
:101CD00006D5A16EB1F1807F74D008D8A9B10126D4
:101CE000354621E000212030FFF746FFEBE7B1F158
:101CF000007F04D0B1F1407FF1D1354609E0354A8B
:101D0000D36843F48033D360F7E7201DFFF7A6FEC6
:101D10000546002D5CD12F4AA16ED2F8883023F001
:101D200040730B43C2F888302368990340F14F8118
:101D3000284FBB6DDA0040F176814FF00008DFF8E4
:101D40009890D9F8003043F48073C9F80030FEF75A
:101D5000AFFC8246D9F80030DB053FD5002D44D1D9
:101D6000D7F8903013F4407315D0D4F88420934200
:101D700011D0D7F89030D7F8902042F48032C7F8CD
:101D80009020D7F8902023F4407322F48032C7F8D3
:101D90009020C7F89030D80709D5FEF789FC41F2AA
:101DA00088390546D7F89030990740F10981D7F86E
:101DB0009030D4F8842023F440731343C7F8903054
:101DC000354612E0002104F12000FFF7D5FE9FE721
:101DD0002E46A9E70010024000700040FEF768FCA4
:101DE000A0EB0A000228B5D90325B8F1000F03D0F3
:101DF000BB6D23F08053BB652368DA0708D5904993
:101E0000A06BD1F8882022F003020243C1F8882099
:101E10009F0708D58A49E06BD1F8882022F00C0290
:101E20000243C1F888205E0708D58549206CD1F8A7
:101E3000882022F030020243C1F88820180708D514
:101E40007F49606CD1F8882022F0C0020243C1F8BB
:101E50008820D90608D57A49A06CD1F8882022F4C8
:101E600040720243C1F888209A0608D57449E06C94
:101E7000D1F8882022F440620243C1F888209F05EF
:101E800008D56F49E06DD1F8882022F44022024342
:101E9000C1F888205E0508D56949206ED1F88820F0
:101EA00022F440120243C1F88820580608D564493C
:101EB000206DD1F8882022F440520243C1F88820D6
:101EC000190608D55E49606DD1F8882022F4404299
:101ED0000243C1F88820DA0508D55949A06DD1F828
:101EE000882022F440320243C1F888209B040FD599
:101EF000534AE16ED2F8883023F040630B43B1F1CE
:101F0000006FC2F8883064D1D36843F48013D36083
:101F100023681F030FD54A4A216FD2F8883023F077
:101F200040630B43B1F1006FC2F888305CD1D368D5
:101F300043F48013D36023685E030FD5404A616F7A
:101F4000D2F8883023F040630B43B1F1006FC2F840
:101F5000883054D1D36843F48013D3602368580485
:101F600012D53749A26FD1F8883023F0405313437C
:101F7000B2F1805FC1F888304CD10221201DFFF7FB
:101F80006DFD002818BF05462268110408D52C49AC
:101F9000E06FD1F8883023F080430343C1F88830E4
:101FA000D30309D5264AD4F88010D2F8883023F01C
:101FB00000430B43C2F88830284602B0BDE8F087E2
:101FC000FEF776FB401B48457FF6ECAE0CE7354646
:101FD00012E7B1F1806F9BD10121201DFFF73EFD7B
:101FE000002818BF054693E7B1F1806FA3D1012106
:101FF000201DFFF733FD002818BF05469BE7B1F110
:10200000806FABD10121201DFFF728FD002818BFEC
:102010000546A3E7B2F1005FB6D1022104F120002A
:10202000FFF7AAFDADE7BB6D43F08053BB65BB6D09
:1020300003F080530193019B4FF001087FE600BF3E
:10204000001002400268C169F8B50446836800695F
:102050001568034360690343BA480B4328400343B0
:1020600013605368E06823F4405303435360B64B56
:10207000A0699A421CBF236A1843936823F4306313
:1020800003439360B14B9A4219D103F55843B04AC8
:10209000D3F8883003F00303B1F5004FD35C40F070
:1020A0003881082B00F28F80DFE813F01A01CA0094
:1020B000F9008D0014018D008D008D003600A54BB8
:1020C0009A4207D103F5E633A34AD3F8883003F0E8
:1020D0000C03E1E7A14B9A4223D103F5E433D3F893
:1020E000883003F03003102B00F0F1800BD8002B68
:1020F00000F0F380B1F5004F4FF001024FF0000304
:1021000000F0F880A8E0202B00F0C680302BF1D141
:10211000B1F5004F40F0B8806068430803F58033A4
:10212000C3E08F4B9A421ED103F5E233D3F88830D7
:1021300003F0C003402B00F0BB800AD87BB9824B70
:102140009A4240F0CA80FFF765FC0023B0BB02460C
:102150003AE0802B00F09D80C02B00F0B0807A4BDD
:102160009A42C7D12FE07F4B9A4211D103F5E03359
:10217000D3F8883003F44073B3F5807F00F0988083
:10218000DCD9B3F5007F00F08480B3F5407FE4E74D
:102190006D4B9A42AED103F5C833D3F8883003F4BF
:1021A0004063B3F5806F00F08380C7D9B3F5006F4B
:1021B0006FD0B3F5406FD0E76B480223626802EB43
:1021C0004201814205D9012200232366636610463D
:1021D000F8BDB0EB023FF6D8082B2ED8DFE803F0AD
:1021E000052D1C2D242D2D2D2700FFF713FC6268D3
:1021F0004FF4807156080027E1FB0067002330464A
:102200003946FEF785F80022584BA0F540719942F7
:10221000D9D82368D860D7E755485508002300214E
:10222000401941F10001ECE7FFF78AF8DFE75008B9
:102230000021002310F50000F3E701220020E3E76E
:10224000FFF7FAFB4EE0FFF7E5FB626800EB520395
:10225000B3FBF2F39BB20022A3F110004FF6EF7133
:102260008842B0D82168CB60AEE7FFF7E5FBECE72A
:102270006068430803F5740303F51053B3FBF0F3F0
:10228000E8E7FFF75DF8E0E76068430803F500431F
:10229000F4E72D4B9A428FD0B1F5004FE8D160683A
:1022A000430803F1F47303F59043B3FBF0F31FE02D
:1022B000254B9A420BD1FFF743F8042346E7224B04
:1022C0009A427FF425AF4FF40040082376E7B1F53A
:1022D000004FD6D1FFF734F804E0B1F5004FB2D18A
:1022E000FFF798FB61684A0802EB4003B3FBF1F388
:1022F0009BB20022A3F110004FF6EF7188423FF627
:1023000062AF23F00F012068C3F342030B43C360A5
:102310005AE7082B3FF657AF01A252F823F000BF4F
:10232000472200086B22000871220008C72100081C
:1023300083220008C7210008C7210008C721000820
:1023400089220008F369FFEF008000400038014057
:102350000C3B000800440040103B000800480040CF
:10236000004C0040005000400024F400FFFC0F002F
:10237000000024F4436ADA0710B506D50168846AC0
:102380004A6822F4003222434A609C0706D501685D
:10239000C46A4A6822F4803222434A60590706D54B
:1023A0000168046B4A6822F4802222434A601A07BB
:1023B00006D50168446B4A6822F4004222434A6011
:1023C000DC0606D50168846B8A6822F480522243B9
:1023D0008A60990606D50168C46B8A6822F40052A7
:1023E00022438A605A060FD50168046C4A6822F4B9
:1023F00080122243B4F5801F4A6005D14A68446CBC
:1024000022F4C00222434A601B0606D50268816C92
:10241000536823F400230B43536010BD2DE9F041B2
:10242000069D04460F46164698462168CA6937EA53
:1024300002030CBF01220022B24202D00020BDE8FC
:10244000F081681CF2D0FEF733F9A0EB080085425A
:102450002068036800D37DB923F4D07303608368D8
:1024600023F00103836020236367A367002384F8BC
:1024700070300320BDE8F0815A07D6D5C3691B052B
:10248000D3D54FF400630362036823F4D073036071
:10249000836823F00103836020236367A367E367F6
:1024A000E4E72DE9F7439846436F202B04460E4698
:1024B00091464CD1002948D0002A46D090F870307F
:1024C000012B44D0012380F8703000252123C567FB
:1024D0004367FEF7EDF8A368A4F85090B3F5805F6A
:1024E0000746A4F8529003D123690BB935461E461E
:1024F000002384F87030B4F85220CDF8008092B2F6
:102500003B463AB940212046FFF788FF40B92023D7
:10251000636706E0002280212046FFF77FFF18B1A5
:10252000032003B0BDE8F08322685EB935F8023BB2
:10253000C3F308031385B4F85230013B9BB2A4F8EF
:102540005230D8E716F8013BF4E70120E9E7022012
:10255000E7E773B504460026C667FEF7A9F82368C7
:102560001B681A07054615D423681B685B070AD544
:102570006FF07E43009300222B464FF480012046EB
:10258000FFF74CFF90B920230020636784F87000A8
:10259000A3670CE06FF07E430093324603464FF48E
:1025A00000112046FFF73AFF0028DDD0032002B0DB
:1025B00070BD10B5044640B3436F1BB980F870304E
:1025C00000F0DCFD226824236367136823F0010315
:1025D00013602046FFF736FD012816D0636A13B159
:1025E0002046FFF7C7FE23685A6822F490425A60DB
:1025F0009A6822F02A029A601A6842F00102204684
:102600001A60BDE81040FFF7A4BF012010BD30B52F
:1026100041F2883585B0848C8DE82C006400A4B22A
:102620000A4601232146806AFEF776FC003018BF77
:10263000012005B030BD30B587B0848C41F28833BD
:10264000029302230193640005AB0093A4B21546E4
:1026500001230A46806A2146FEF75EFC48B99DF8D0
:1026600015209DF8143043EA02232B80012007B087
:1026700030BD0020FBE730B587B006AD848C05F88F
:10268000012D42F21073029364000123019300951F
:10269000A4B20A46806A2146FEF786FB003018BFC6
:1026A000012007B030BD0323002203704270837005
:1026B000C370037143717047838C763B9BB2012BCF
:1026C00073B504460E4601D90020EDE0012300F168
:1026D0003202D021FFF79BFF0028F5D194F8323069
:1026E000582B01D0602BEFD1B622E0212046FFF716
:1026F000C2FF0028E8D101230DF10602F321204694
:10270000FFF785FF0028F6D19DF80630DB07F2D4ED
:10271000224688212046FFF78EFF0028D4D0A21C35
:102720008A212046FFF787FF0028CDD0221D8C216B
:102730002046FFF780FF0028C6D0A21D8E2120462C
:10274000FFF779FF0028BFD004F10802902120464E
:10275000FFF771FF0028B7D004F10A02922120464A
:10276000FFF769FF0028AFD004F10C029421204646
:10277000FFF761FF0028A7D004F10E029621204642
:10278000FFF759FF00289FD004F11002982120463E
:10279000FFF751FF002897D004F112029A2120463A
:1027A000FFF749FF00288FD004F114029C21204636
:1027B000FFF741FF002887D004F116029E21204632
:1027C000FFF739FF00283FF47FAF94F83230602BD9
:1027D00044D1012304F11802A1212046FFF717FF7D
:1027E00000287FF471AF04F11A02E1212046FFF7BF
:1027F00022FF00283FF468AF012304F11C02E3210B
:102800002046FFF704FF00287FF45EAF01AAE42111
:102810002046FFF710FF00283FF456AF0DF10602E7
:10282000E5212046FFF707FF00283FF44DAF0123C5
:1028300004F12202E7212046FFF7E9FE00287FF499
:1028400043AFBDF80420130103F47F63C2F30322F6
:102850001343E383BDF806301B0923847278737930
:10286000920042EA431202F0FC02F5212046FFF7F3
:1028700002FF00287FF428AF3378B578012BF37876
:1028800008BF3070AD0045EA431533781D4394F816
:102890003230602BEDB209D02A46F4212046FFF7F2
:1028A000EAFEB0FA80F0400902B070BD3279F22140
:1028B0002046FFF7E0FE0028EED005E72DE9F04FB7
:1028C0001D4690F8323089B0602B04460E460592C2
:1028D00005D015B100232B601D46062303E0002D13
:1028E0000CBF0623082306AAF7212046FFF78FFE18
:1028F0008646002840F023819DF8183003939DF808
:10290000193004939DF81C309DF81B2021889DF8F8
:102910001AC01B0143EA02339DF81D2043EA12133B
:10292000C1EB13124900C1EBD303B4F902105243B7
:102930004B43B4F9041012134A43921302EBE323FE
:10294000029303EB830380331B123360029BB4F9C1
:102950000A60B3F5FA3AAAFB0A128DE806004FEABC
:10296000E37B4BF1FF3B019A0AFB0BF302EB4303C2
:10297000B4F90820019302FB0BF1D3170AFB0311F2
:10298000A2FB0A230B444FEA0339019B4FEA0238AA
:1029900049EA1259009AF717734302FB0733A6FB63
:1029A00002671F44320A42EA076212EB08024FEA4A
:1029B0002723B4F8068043EB0903003243F50043B4
:1029C000A2FB086708FB03777810F91750EA0103A8
:1029D00079D0B4F91060019BB4F90E80009A73436A
:1029E000F71702FB07374FEAE879A6FB022308FB3B
:1029F0000BF60AFB0966A8FB0A89B1443B444FEA7F
:102A000048464FEA4947B61847EAD8375F41049B22
:102A1000B4F90CA04FEA1C1C4CEA031C039B4CEAC3
:102A2000033CCCF5801C4FEAEC7916EB0E064FEA1E
:102A3000CC724FEAC9734FEACA0943EA5C0347EB19
:102A40000907961B63EB070740F63543A6FB03AB6C
:102A500003FB07BB02460B4650465946FDF708FCF0
:102A6000B4F916204E13470B47EAC14702FB06FE96
:102A7000D31707FB03EEA2FB07237344564307FB60
:102A80000366A2FB07233344560E46EAC3163218E8
:102A9000B4F914604FEA636747EB01037143F7171A
:102AA00000FB0717A6FB00013944C60C46EA413675
:102AB00092194FEAE147B4F912607B41100A40EAEB
:102AC000036032018018059B1860B5B3029BBDF806
:102AD0001E10A3F59632B4F91E3049BA1B0589B20F
:102AE000C3EB8131B4F9203002FB131303F58043AB
:102AF000D913237F5343DB1203F5004094F92230AE
:102B000053439B1243439B1203F50012B4F91A304E
:102B1000534303F500539B134B43DA13217E524377
:102B2000D2114A43A3EB221323EAE373B3F1C85F44
:102B3000A8BF4FF0C8531B132B60012000E00020FA
:102B400009B0BDE8F08F000010B514228AB00DEB7B
:102B50000200002100F092FB214BDA6C42F00402EB
:102B6000DA64DA6C02F004020192019ADA6C42F043
:102B70008002DA64DA6C02F080020292029ADA6C65
:102B800042F00102DA64DA6C02F001020392039A65
:102B9000DA6C42F00202DA64DB6C03F0020300221A
:102BA000049320214FF09040049BFDF7D3FE4FF497
:102BB00000530024059305A90A4B0B48069307947C
:102BC000FDF7ECFD2023059305A901234FF090406C
:102BD000069307940894FDF7E1FD0AB010BD00BF0D
:102BE00000100240000021100008004808B51248FB
:102BF000124B1349012280E80A0000238360C2605F
:102C0000036143618361C3610362FDF7E8FF08B1BB
:102C100000F04EFA00210848FEF7C7FA08B100F0AC
:102C200047FA00210448FEF7E6FA18B1BDE808406B
:102C300000F03EBA08BD00BFA0000020EC9C901040
:102C40000054004010B5044688B01422002103A8A7
:102C500000F014FB2268134B9A4221D1124C134806
:102C6000E36C43F00203E364E36C03F002030193BB
:102C7000019B4FF4407303931223049301230593A4
:102C80000323069303A904230793FDF787FDA36D90
:102C900043F40013A365A36D03F400130293029B96
:102CA00008B010BD0054004000100240000400486D
:102CB0002DE9F0430B7887B043F00C020A7043F023
:102CC0002C0380220F468DF80C208DF80D30052244
:102CD00064237C21044641F28835FEF7DBF932207B
:102CE000FDF7ECFC03AA009502237C212046FDF7AA
:102CF000C7FF3220FDF7E2FC03AA009502237C21E6
:102D00002046FDF7BDFF0520FDF7D8FC009503AA7E
:102D100002237C2120464FF47A76FDF7B1FF4FF075
:102D200004080C2387F801808DF80D3003AA009663
:102D300002237C212046FDF7A3FF4FF0010903AADF
:102D400002237C21009620468DF80D90FDF798FF18
:102D500002200225FDF7B2FC0623BD708DF80D3070
:102D600003AA2B4600967C212046FDF789FF00230D
:102D70008DF810308DF8113004AA2B460096C4212E
:102D80002046FDF77DFF0823FF278DF8103004AAA9
:102D90002B460096C42120468DF81170FDF770FF78
:102DA00020238DF8113004AA2B460096C42120461A
:102DB0008DF81090FDF764FF2B4605AA0096C421FC
:102DC00020468DF814808DF81570FDF759FF032308
:102DD0008DF8143005AA2B460096C42120468DF8A4
:102DE0001570FDF74DFF00962B4605AAC42120461D
:102DF0008DF814508DF81570FDF742FF07B0BDE84F
:102E0000F0830000F0B585B004AC402304F8043D25
:102E1000094F451E4FF47A7615F8013F0BB905B0FE
:102E2000F0BD8DF80D300096022322467C213846F5
:102E3000FDF726FFF0E700BFA00000201FB58AB90C
:102E400041F0800180238DF80C304FF47A738DF8B7
:102E50000D10009303AA02237C21FDF711FF05B09A
:102E60005DF804FB41F0C001ECE700001FB58023D2
:102E70008DF80C3001238DF80D304FF47A730093E8
:102E800003AA02237C210448FDF7FAFE0220FDF785
:102E900015FC05B05DF804FBA000002010B5B8B02B
:102EA0004422002105A800F0E9F914220021684617
:102EB00000F0E4F90021882216A800F0DFF94FF4B1
:102EC0008072089210220992012211920A22022392
:102ED000129205A80722002405930F9310931392D2
:102EE00014931593FEF77AFA0F2204210323684600
:102EF0008DE81C0003940494FEF7F6FC422316A808
:102F0000169325942A94FEF7B5FE4FF40070FEF751
:102F10009FF938B010BD00002DE9FF47514C524DCC
:102F2000524FFDF7A3FBFFF7B9FFFFF70DFEFFF7C9
:102F30005DFE00F005F920464D49FFF7B9FE00227D
:102F400011462046FFF77AFF4A48FFF75BFFFFF77D
:102F50008DFF4948FFF7A7FB484B77229C629A8474
:102F60001C4603F12C0631464448FFF7A5FB002818
:102F700055D094F83210424B424A4348424CDFF855
:102F80001091384E602918BF1A46404900F07EF96A
:102F90004FF47A7382B23C493D482A80FFF781FAA8
:102FA0006420FDF78BFBDFF8F080DFF800A1394FDC
:102FB0003949324853463A46FFF780FC00283FD053
:102FC000D8F80020354964272046B2FBF7F200F01C
:102FD0005DF94FF4FA7382B221464846FFF761FA71
:102FE000D8F800202E49B2FBF7F201A800F04EF904
:102FF000FFF73CFF002211463046FFF71FFF29482C
:10300000FFF700FF002207213046FFF717FF01A856
:10301000FFF7F8FE4FF4FA60FDF750FBC0E73946C2
:10302000194800F057F91D224FF47A7316491848D1
:103030002A80FFF736FA4FF4FA60FDF73FFB92E77C
:103040001949204600F046F924224FF47A732146AC
:1030500048462A80FFF725FA4FF4FA60FDF72EFB69
:10306000A6E700BFA000002000020020373B0008B8
:103070008C0000202B3B00083002002004020020BE
:10308000243B00081D3B0008FC000020553B0008C5
:1030900038020020F4000020F00000208C3B0008E3
:1030A0009F3B0008A23B0008673B0008F800002097
:1030B000704700000A4B1A6E42F001021A661A6E3F
:1030C00082B002F001020092009A9A6D42F08052A2
:1030D0009A659B6D03F080530193019B02B070478A
:1030E000001002407047FEE7FEE7FEE7FEE770478C
:1030F00070477047FDF7D0BA0F49D1F8883043F4D4
:103100007003C1F888300D4B1A68002042F00102AC
:103110001A6098601A6822F0A85222F410221A60ED
:103120004FF48052DA601A6822F480221A609861A3
:103130004FF000638B60704700ED00E0001002402C
:1031400008B50C480C4B4FF4165E80E808400C2282
:1031500000238360C360036142618361C3610362D2
:103160004362FFF726FA18B1BDE80840FFF7A0BF99
:1031700008BD00BF380200200044004010B50446DE
:1031800088B01422002103A800F078F82268134BBD
:103190009A4220D103F5E63303A99A6D42F4003236
:1031A0009A659A6D02F400320192019ADA6C42F04B
:1031B0000102DA64DB6C03F001030293029B0C232F
:1031C000039302230493032306934FF090400723B5
:1031D0000793FDF7E3FA08B010BD00BF00440040BC
:1031E000DFF834D0002103E00C4B5B58435004312E
:1031F0000B480C4B42189A42F6D30B4A02E00023CC
:1032000042F8043B094B9A42F9D3FFF775FF00F0EF
:1032100011F8FFF781FEFEE700800120383C00082E
:10322000000000207000002070000020BC02002080
:10323000FEE7000070B50D4E0D4CA41BA410002538
:10324000A54209D10B4E0C4C00F054FCA41BA41059
:103250000025A54205D170BD56F8253098470135A7
:10326000EEE756F8253098470135F2E7303C000884
:10327000303C0008303C0008343C0008024403465F
:10328000934200D1704703F8011BF9E70EB400B573
:103290009CB04FF402711DABADF814100290069073
:1032A0006FF000410A48049107914FF6FF7153F8FF
:1032B000042BADF816100068019302A900F06EF817
:1032C000029B00221A701CB05DF804EB03B070473B
:1032D0000C000020034611F8012B03F8012B002AF3
:1032E000F9D170472DE9F0478E689E4282460C4620
:1032F0009146984635D88A8912F4906F31D0256866
:1033000009696F1A6569022305EB450595FBF3F51D
:1033100008F101033B449D4238BF1D46530531D59A
:10332000294600F039FB064650B90C23CAF8003094
:10333000A38943F04003A3814FF0FF30BDE8F0873D
:103340003A46216900F0B4FAA38923F4906343F06C
:103350008003A381266165613E44ED1B2660A56064
:103360004646464528BF464632464946206800F054
:10337000AAFAA3689B1BA36023681E442660002052
:10338000BDE8F0872A4600F065FB06460028E1D13B
:103390002169504600F0B2FAC7E700002DE9F04F6E
:1033A0009DB0804603938B891C060D4616460FD5AB
:1033B0000B696BB9402100F0EFFA2860286128B949
:1033C0000C23C8F800304FF0FF30C5E040236B619C
:1033D0000023099320238DF8293030238DF82A30DB
:1033E0004FF0010B37463C4614F8013B002B3CD113
:1033F000B7EB060A0BD05346324629464046FFF744
:1034000071FF013000F0A380099B534409933B787E
:10341000002B00F09C8000234FF0FF3204930793B1
:10342000059206938DF853301A930522217850485F
:10343000FCF7CEFE671C049BD8B9D90644BF2022F6
:103440008DF853201A0744BF2B228DF85320227881
:103450002A2A16D0079A00210A20274601343B78F1
:10346000303B092B51D9C9B111E0252BC0D02746DB
:10347000B9E73F4A801A0BFA00F0184304903C4623
:10348000D3E7039A111D12680391002A01DB07920A
:1034900004E0524243F00203079204933B782E2B40
:1034A0000ED17B782A2B07F1010132D1039B1A1D23
:1034B0001B680392002BB8BF4FF0FF330237059310
:1034C0002C4C397803222046FCF782FE38B1402389
:1034D000001B03FA00F0049B03430493013739787F
:1034E00025488DF8281006227E1CFCF771FE002866
:1034F00035D0224BFBB9039B073323F00703083376
:103500000393099B4B4409936CE700FB02320121B2
:10351000A3E70023059318460A240F4601313A78A1
:10352000303A092A03D9002BCAD00590C8E704FB1A
:1035300000200123F1E703AB00932A46104B04A9B6
:103540004046AFF30080B0F1FF3F8146D9D1AB894F
:103550005B063FF538AF09981DB0BDE8F08F03ABAF
:1035600000932A46064B04A9404600F081F8EAE79A
:10357000F43B0008FA3B0008FE3B00080000000096
:10358000E53200082DE9F04791461F468A680B692D
:10359000DDF820809342B8BF1346C9F8003091F897
:1035A000432006460C4612B10133C9F800302368A7
:1035B000990642BFD9F800300233C9F800302568B7
:1035C00015F0060507D104F1190AE368D9F80020BF
:1035D0009B1A9D4229DB94F843302268003318BFC0
:1035E000012392062ED404F1430239463046C047E7
:1035F000013021D02368E568D9F8002003F00603E4
:10360000042B08BFAD1AA36822690CBF25EAE57533
:1036100000259342C4BF9B1AED184FF000091A34DD
:103620004D451BD10020BDE8F087012352463946A5
:103630003046C047013003D14FF0FF30BDE8F0877E
:103640000135C2E7E1185A1C302081F843002244BA
:1036500094F8451082F843100233C4E70123224650
:1036600039463046C0470130E6D009F10109D7E7B5
:103670002DE9F04317460A7E85B06E2A9846064625
:103680000C460C9B01F1430E00F0BC801AD8632A53
:103690002ED00AD8002A00F0C880582A00F08A806C
:1036A00004F1420584F842202AE0642A01D0692A04
:1036B000F6D121681A6811F0800F23D0111D19600E
:1036C000136827E0732A00F0B48008D86F2A2AD044
:1036D000702AE5D10A6842F020020A6003E0752AE8
:1036E00021D0782ADCD1782284F845206E4964E024
:1036F0001A6801F14205111D1960136884F84230FF
:103700000123A3E011F0400F02F104011960D7D0AA
:10371000B2F90030002B03DA2D225B4284F84320FB
:1037200062490A2217E02068196810F0800F03D060
:10373000081D18600B6806E010F0400F01F104004E
:103740001860F7D00B8859496F2A14BF0A22082243
:10375000002084F843006568A560002DC0F29C80BD
:10376000206820F004002060002B3FD1002D40F0A5
:1037700095807546082A0BD12368DA0708D5236996
:1037800062689A42DEBF302305F8013C05F1FF353F
:10379000AEEB05032361CDF800803B4603AA21462A
:1037A0003046FFF7EFFE013055D14FF0FF3005B046
:1037B000BDE8F08381F845203C492268186812F082
:1037C000800F00F104051D6001D0036802E055067A
:1037D000FBD50388D00744BF42F0200222601BB90A
:1037E000226822F0200222601022B1E77546B3FB66
:1037F000F2F002FB1033CB5C05F8013D03460028D4
:10380000F5D1B7E708681A68496910F0800F04D04D
:10381000101D18601368196007E010F0400F02F1E6
:10382000040018601368F6D01980002323617546E0
:10383000B1E71A68111D19601568626800212846F1
:10384000FCF7C6FC08B1401B60606368236100237D
:1038500084F843309FE723692A4639463046C047FB
:103860000130A2D023689B0707D5002504F1190970
:10387000E368039A9B1A9D4205DBE068039B98422C
:10388000B8BF184693E701234A4639463046C04739
:1038900001308AD00135EBE7002BA7D10B7884F8F3
:1038A000423004F1420565E7163C0008053C00087B
:1038B00010B5431E0A44914200D110BD11F8014BCE
:1038C00003F8014FF7E7884210B501EB020303D874
:1038D000421E99420CD110BD9842F9D28118D21AD9
:1038E000D34200D110BD13F8014D01F8014DF7E7A7
:1038F00011F8014B02F8014FEBE7000038B505461F
:10390000002945D051F8043C0C1F002BB8BFE41827
:1039100000F0D6F81F4A1368104633B9636014608C
:103920002846BDE8384000F0CCB8A3420CD9216845
:103930006218934204BF1A685B68636004BF521840
:1039400022600460ECE713465A680AB1A242FAD931
:1039500019685818A0420BD12068014458188242B7
:103960001960DDD1106852685A6001441960D7E7C8
:1039700002D90C232B60D3E7206821188A4204BFA8
:1039800011685268626004BF091821605C60C7E773
:1039900038BD00BF9000002070B5CD1C25F0030598
:1039A00008350C2D38BF0C25002D064601DBA94239
:1039B00003D90C233360002070BD00F081F8234A46
:1039C0001468214691B9224C23681BB9304600F097
:1039D00067F820602946304600F062F8431C26D183
:1039E0000C233360304600F06CF8E4E70B685B1B97
:1039F0001AD40B2B0FD90B60CD50CC18304600F0E9
:103A000060F804F10B00231D20F00700C31A1BD03F
:103A10005A42E25070BD8C420DBF63684B686360D0
:103A2000136018BF0C46E9E70C464968CAE7C41C96
:103A300024F00304A04205D0211A304600F030F8EB
:103A40000130CDD02560D9E770BD00BF90000020C7
:103A500094000020F8B5074614460E4621B91146D9
:103A6000BDE8F840FFF798BF22B9FFF747FF2546AA
:103A70002846F8BD00F026F884420FD92146384682
:103A8000FFF78AFF05460028F2D031462246FFF7AD
:103A90000FFF31463846FFF731FFE9E73546E7E7E4
:103AA00038B5064C002305460846236000F014F89C
:103AB000431C02D1236803B12B6038BDB80200203B
:103AC0007047704751F8040C0028A0F10400BCBFF7
:103AD0000B58C01870470000044B1968024609B91A
:103AE00003491960186802441A6070479800002062
:103AF000BC020020F8B500BFF8BC08BC9E46704769
:0C3B0000F8B500BFF8BC08BC9E4670473A
:103B0C000104020800101010041010100210101004
:103B1C0008424D4532383000424D50323830005357
:103B2C007461727475702E2E2E2000424D503238F6
:103B3C003020696E697469616C697A6174696F6E41
:103B4C00206661696C65640A00424D503238303A27
:103B5C0020666F756E642025730A0054656D706560
:103B6C007261747572652F707265737375726520EE
:103B7C0072656164696E67206661696C65640A00D0
:103B8C0054656D7065726174757265203A20256498
:103B9C00200A0025640054656D70203D2000000053
:103BAC0000000000000001020304060708090000E1
:103BBC000000010203040000A0860100400D030078
:103BCC00801A060000350C0040420F0080841E0055
:103BDC0000093D0000127A000024F40000366E014A
:103BEC000048E801006CDC02232D302B2000686CAF
:103BFC004C00656667454647003031323334353604
:103C0C00373839414243444546003031323334353C
:0C3C1C0036373839616263646566000069
:083C280018C7FF7F0100000036
:043C3000B5010008D2
:043C340091010008F2
:103C3800010000001000000000093D0010000020F5
:103C4800000000000000000000000000000000006C
:103C5800000000000000000000000000000000005C
:103C6800000000000000000000000000000000004C
:103C7800000000000000000000000000000000003C
:103C8800000000000000000000000000000000002C
:103C9800000000000000000000000000000000001C
:04000005080031E1DD
:00000001FF
