:020000040800F2
:1000000000100020CD2B0008352A0008372A0008F0
:1000100000000000000000000000000000000000E0
:10002000000000000000000000000000392A000865
:1000300000000000000000003B2A00083D2A0008E4
:100040001D2C00081D2C00081D2C00081D2C00086C
:100050001D2C00081D2C00081D2C00081D2C00085C
:10006000000000001D2C00081D2C00081D2C00089D
:100070001D2C00081D2C00081D2C00081D2C00083C
:10008000452A000800000000000000001D2C0008A8
:10009000000000001D2C00081D2C00081D2C00086D
:1000A000000000001D2C000800000000552A000878
:1000B0000000000000000000000000000000000040
:1000C00010B5064C2378002B07D1054B002B02D02E
:1000D000044800E000BF0123237010BD7800002019
:1000E00000000000EC340008044B10B5002B03D0D6
:1000F0000349044800E000BF10BDC04600000000F6
:100100007C000020EC34000802B471464908490024
:10011000095C49008E4402BC7047C0460022430877
:100120008B4274D303098B425FD3030A8B4244D3BF
:10013000030B8B4228D3030C8B420DD3FF22090201
:1001400012BA030C8B4202D31212090265D0030BC0
:100150008B4219D300E0090AC30B8B4201D3CB03B6
:10016000C01A5241830B8B4201D38B03C01A5241F8
:10017000430B8B4201D34B03C01A5241030B8B42FA
:1001800001D30B03C01A5241C30A8B4201D3CB02E5
:10019000C01A5241830A8B4201D38B02C01A5241CA
:1001A000430A8B4201D34B02C01A5241030A8B42CD
:1001B00001D30B02C01A5241CDD2C3098B4201D3E5
:1001C000CB01C01A524183098B4201D38B01C01A63
:1001D000524143098B4201D34B01C01A52410309DA
:1001E0008B4201D30B01C01A5241C3088B4201D389
:1001F000CB00C01A524183088B4201D38B00C01A36
:10020000524143088B4201D34B00C01A5241411A5C
:1002100000D20146524110467047FFE701B5002069
:1002200000F0F0F802BDC0460029F7D076E770472D
:1002300003460B437FD4002243088B4274D3030947
:100240008B425FD3030A8B4244D3030B8B4228D3E8
:10025000030C8B420DD3FF22090212BA030C8B420E
:1002600002D31212090265D0030B8B4219D300E0AE
:10027000090AC30B8B4201D3CB03C01A5241830B33
:100280008B4201D38B03C01A5241430B8B4201D3E3
:100290004B03C01A5241030B8B4201D30B03C01A0C
:1002A0005241C30A8B4201D3CB02C01A5241830A86
:1002B0008B4201D38B02C01A5241430A8B4201D3B5
:1002C0004B02C01A5241030A8B4201D30B02C01ADF
:1002D0005241CDD2C3098B4201D3CB01C01A524146
:1002E00083098B4201D38B01C01A524143098B42CF
:1002F00001D34B01C01A524103098B4201D30B01B8
:10030000C01A5241C3088B4201D3CB00C01A5241DC
:1003100083088B4201D38B00C01A524143088B42A1
:1003200001D34B00C01A5241411A00D2014652413A
:10033000104670475DE0CA0F00D04942031000D359
:100340004042534000229C4603098B422DD3030AAE
:100350008B4212D3FC22890112BA030A8B420CD3BE
:10036000890192118B4208D3890192118B4204D3E7
:1003700089013AD0921100E08909C3098B4201D367
:10038000CB01C01A524183098B4201D38B01C01AA1
:10039000524143098B4201D34B01C01A5241030918
:1003A0008B4201D30B01C01A5241C3088B4201D3C7
:1003B000CB00C01A524183088B4201D38B00C01A74
:1003C0005241D9D243088B4201D34B00C01A52414B
:1003D000411A00D20146634652415B10104601D3D8
:1003E0004042002B00D54942704763465B1000D362
:1003F000404201B5002000F005F802BD0029F8D008
:1004000016E770477047C04670B50500FA200D4BDF
:1004100080001978FFF782FE0B4B01001868FFF788
:100420007DFE00F085F804000120002C09D1032D89
:1004300007D802382200290000F03EF82000034BC4
:100440001D6070BD0000002010000020040000208E
:100450001023064A10B5116800200B431360FFF704
:10046000D3FF02F0CFFA002010BDC04600200240AA
:10047000034A044B11681B785B1813607047C04631
:10048000A400002000000020014B18687047C046FF
:10049000A400002070B50400FFF7F6FF0500631C00
:1004A00002D0044B1B78E418FFF7EEFF401B844298
:1004B000FAD870BD0000002070B58901002812DB59
:1004C0008308134A03249B009B18FF222040A0406E
:1004D0001400C025844011408140AD005E59A64300
:1004E0003143595170BD03240F23C0B20340204053
:1004F000A040FC342500214085408140083B054A4E
:100500009B089B009B18DA69AA431143D961E9E76C
:1005100000E100E000ED00E0002805DB1F231840AB
:100520001E3B8340014A13607047C04600E100E073
:10053000094A431E012093420DD8C021074A0848AA
:100540005360036A09061B021B0A0B430362002067
:100550000723906013607047FFFFFF0010E000E08A
:1005600000ED00E0F0B50B6887B002930023019125
:10057000029ADA4001D107B0F0BD01229A400392FD
:100580000399029A0A40009200D188E0019A102152
:10059000526816008E43022E0ED107251D40AD0075
:1005A0000139A940DC08A4000419276A8F43019986
:1005B0000969A9400F43276203245F00BC40E4435C
:1005C0000568013E2540AC4603251540BD40614607
:1005D0000D430560012E0FD801998668CD6826402D
:1005E000BD40354385604668039915098E43012156
:1005F0000D409D4035434560C56801992C408D688C
:100600008021BD4049052C43C4600A4247D00121E6
:10061000244C0326A5691E400D43A561A4699D08CD
:100620000C400594059C0F241F49AD00B6006D18C1
:10063000B4409021AF68C905A7430024884208D080
:100640001A490134884204D019490434884200D13F
:10065000033CB44000993C430E00AC60154CCD43C4
:1006600027683E43D10301D43E002E4026606768D0
:10067000009E3E43910301D43E002E406660A76871
:10068000009E3E43D10201D43E002E40A660E668A3
:10069000009F3743920201D42E403700E7600133B8
:1006A00066E7C04600100240000001400004004818
:1006B0000008004800040140002A01D08161704711
:1006C0008162FCE703689A69920701D500229A6269
:1006D00001229969114202D199690A439A617047CE
:1006E00070B5049E89053343890D1943802304683E
:1006F000DB00700D1840044B6568120418438543F5
:1007000011432943616070BDFF63FF03F8B5040026
:100710000E0017001D002268936933409B1B59424D
:100720004B41BB4201D0002017E06B1CF4D0FFF717
:10073000ABFE069BC01A854201D3002DEBD12022CF
:10074000636C012013436364230041331A70220059
:1007500000234232403413702370F8BDF8B50368AB
:100760000400986910230E00170018402025002867
:1007700018D1F8BD721C16D0FFF786FEC01B86424A
:1007800001D3002E0ED12022636C13436364230037
:1007900041331A702200002342324034137001208A
:1007A0002370E6E723689A692A42E3D010222000EA
:1007B000DA61DD61FFF786FF2268064953680B4066
:1007C00053600423626C13436364230041331D7040
:1007D000E0E7C04600E800FEF8B504000D00160092
:1007E000022723689B693B4201D00020F8BD3200FC
:1007F00029002000FFF7B2FF002815D16B1CF0D0B4
:10080000FFF742FE801B854201D3002DE9D1202253
:10081000636C13436364230041331A702200002386
:1008200042324034137023700120DFE7F8B5040032
:100830000D001600202723689B693B4201D0002051
:10084000F8BD320029002000FFF788FF002813D1EF
:10085000FFF71AFE801B854201D3002DEBD1202229
:10086000636C13436364230041331A702200002336
:1008700042324034137023700120E1E770B5040068
:100880000120002C3FD0250041352B78DBB2002B16
:1008900005D1220040321370200001F0F9F9242321
:1008A00001212B702368E0681A68A6688A431A60E1
:1008B00061681A4A0A401A619968194A1140996098
:1008C000012821D1802109023143996058681549D6
:1008D00001435960D96800200A40DA6061692269E1
:1008E0000A43A16909020A43DA60216AE2690A43FC
:1008F0001A60012219680A431A60202360642B7071
:1009000020634234207070BD842109023143996014
:100910000228DBD1802109015960D7E7FFFFFFF0F2
:10092000FF7FFFFF00800002F0B5050087B0039154
:100930000492059341352B7804000220202B14D11A
:10094000230040331A78012A0FD001261E70FFF7CA
:100950009BFD80210700009019233200090220002E
:10096000FFF7D4FE002802D0012007B0F0BD2123FC
:100970002B702500113B42352B70049B6064636231
:100980006B469B8A60636385628D304BFF2A21D959
:10099000FF222285009380235B0403992000FFF748
:1009A0009FFEFF26638D3A000C992000002B19D181
:1009B000FFF73CFF0028D7D120212368244ED961BE
:1009C0005A6832405A60230040344133197028700D
:1009D0002070CAE7628D92B2228500938023D2B242
:1009E0009B04DAE7FFF7F8FE0028BDD1636A2268AE
:1009F0001978013391626362638D228D013B9BB252
:100A00006385013A638D92B22285002BCAD0002AF9
:100A1000C8D100970C9B80212000FFF777FE0028AB
:100A2000A2D1638DFF2B09D98023FF2226855B0489
:100A3000009003992000FFF753FEB3E78023628DF7
:100A40009B0492B22285D2B20090F2E7002000808F
:100A500000E800FEF0B51D00002389B007930300F5
:100A600041330591049202931B7804000220202B4D
:100A700056D123689A6980231B02134050D121006C
:100A800040310A78012A4BD001220A7024210298B1
:100A9000039201706364059BE1689B0522689B0DCE
:100AA00001291FD133490B435360FFF7EDFC0600CA
:100AB00022680399936992695B0912090B400A4005
:100AC000134312D0102723689A6900963A402B00EE
:100AD000002A27D120212000FFF718FE002817D078
:100AE00001201DE0A0218901DDE76B1CE0D0FFF7AC
:100AF000CBFC801B854201D3002DD9D12023029A43
:100B00004034137062681343636000232370E7E787
:100B100020232268D36122004034413213702070B8
:100B200009B0F0BD002220212000FFF7EFFD021EDA
:100B3000D6D123680498DF612027DF6107998142BD
:100B40000ED180215868C9010143596020000096E8
:100B50002B003900FFF7DAFD0028C1D12368DF61DF
:100B6000079B049A01330793079B9A4200D992E7A7
:100B7000C4E7C04600200002F0B5040041342278EA
:100B80000300D2B20220202A18D11D0040352E7851
:100B9000012E13D01B68223020701E682338864334
:100BA0001E601E68064F3E401E601E68314319607D
:100BB000196808431860002022702870F0BDC046F4
:100BC000FFEFFFFFF0B5050041352A780300D2B2F0
:100BD0000220202A17D11C0040342678012E12D082
:100BE0001B68223028701E68233886431E601E68EA
:100BF000054F09023E4031431960196808431860E7
:100C000000202A702070F0BDFFF0FFFFF0B5040057
:100C100085B0002802D1012005B0F0BD0368DB07D4
:100C20002ED423689B077ED423681B0700D5BAE027
:100C300023685B0700D5DDE02368DB061AD562690F
:100C4000B44D0423012A00D049E1696B02260B430D
:100C50006B636B6B1A436A63FFF716FC07006B6BE1
:100C6000334200D134E1F8216A6BA3698A43DB0087
:100C700013436B63236A002B00D057E10020CBE7BE
:100C80000C21A44D6A680A40042A06D06B680B4008
:100C9000082B09D16B68DB0306D52B689B03C0D5F5
:100CA0006368002BBDD1B6E76368012B13D18023A5
:100CB0002A685B0213432B60FFF7E6FB80260700E0
:100CC000B6022B683342ACD1FFF7DEFBC01B6428B1
:100CD000F7D90320A0E7002B15D12B688E4A802678
:100CE00013402B602B688D4AB60213402B60FFF730
:100CF000CBFB07002B68334293D0FFF7C5FBC01B2B
:100D00006428F7D9E5E7052B05D180232A68DB02A3
:100D100013432B60CBE72B687F4A13402B602B6873
:100D20007E4A1340C7E70C227A4D6B68134206D007
:100D30006B681340082B11D16B68DB030ED42B6852
:100D40009B0703D5E368012B00D064E7F8212A68EC
:100D500023698A43DB0013432B6065E7E2680123C4
:100D6000002A0FD02A68022613432B60FFF78CFB62
:100D700007002B683342E9D1FFF786FBC01B02282E
:100D8000F7D9A6E72A6802269A432A60FFF77CFB78
:100D900007002B68334200D146E7FFF775FBC01B05
:100DA0000228F6D995E7E26901235A4D002A10D0AE
:100DB0006A6A022613436B62FFF766FB07006B6AE1
:100DC000334200D034E7FFF75FFBC01B0228F6D99F
:100DD0007FE76A6A02269A436A62FFF755FB0700BB
:100DE0006B6A334200D123E7FFF74EFBC01B02289A
:100DF000F6D96EE780220021464D5205EB6900913D
:100E0000134208D1EB691343EB61EB691340039381
:100E1000039B012300938027414E7F0033683B42B0
:100E200006D0A368012B13D12A6A13432B6230E04A
:100E300033683B433360FFF727FB019033683B4245
:100E4000EFD1FFF721FB019BC01A6428F6D940E7D8
:100E50000122002B14D12B6A022793432B622B6AA9
:100E6000033293432B62FFF70FFB06002B6A3B42D2
:100E700025D0FFF709FB2B4B801B9842F6D928E7BA
:100E8000052B0BD1296A013B0B432B622B6A1A43BA
:100E90002A62FFF7F9FA022706000DE02B6A934356
:100EA00004222B622B6A9343C0E7FFF7EDFA1D4B38
:100EB000801B984200D90CE72B6A3B42F5D0009B7F
:100EC000012B00D0B8E6EB69174A1340EB61B3E69B
:100ED000FFF7DAFAC01B022800D8C0E6F9E60532AF
:100EE00003D16A6B9A436A63BDE66A6B02261343B9
:100EF00001226B636B6B93436B63FFF7C5FA0700CB
:100F00006B6B334200D1B5E6FFF7BEFAC01B022877
:100F1000F6D9DEE600100240FFFFFEFFFFFFFBFFF9
:100F20000070004088130000FFFFFFEF0C20354ADF
:100F3000516815000140082947D0334A022B32D1AD
:100F40002B68802613402B60FFF79EFA0700B6043B
:100F50002B68334221D10F22EB6A9343E26A134399
:100F6000EB62616AA36A6A680B43284980240A40DD
:100F700013436B6080232A685B0413432B60FFF7E5
:100F800083FA0600A4042B68234200D076E6FFF71C
:100F90007BFA801B0228F6D99BE6FFF775FAC01B87
:100FA0000228D5D995E62B68802413402B60FFF7E3
:100FB0006BFA0600A4042B68234200D15EE6FFF71B
:100FC00063FA801B0228F6D983E61800012B00D1B2
:100FD00022E680215368656A4902D26A19400120DD
:100FE000A94200D018E60F210A40E16A8A4200D0E7
:100FF00012E6F02080030340A06A1B1A581E8341AA
:10100000D8B209E600100240FFFFFFFEFFFFC2FF5B
:1010100070B5144C88B010222100684601F024FEFF
:10102000210004AD10221031280001F01DFE0C2219
:101030000D4E73681A40082A11D10F206A46990C88
:101040000140545CF26A0240A95CDB0305D5074805
:10105000FFF764F8604308B070BD0548FAE703483D
:10106000F9E7C046043500080010024000127A007B
:1010700000093D00F7B505000F00002801D101204F
:10108000FEBD0122374C236813408B421CD32968D4
:101090008B0722D4CB072FD4012322681A40974212
:1010A00051D32B68304C5B0754D4FFF7B1FF636812
:1010B0002E4A1B061B0FD35CD8402D4B1860002016
:1010C000FFF7A2F90020DBE7236893430B4323607B
:1010D000236813409942D2D1D9E7234A4B0704D55C
:1010E000E0235068DB0003435360F02053688343E0
:1010F000A86803435360CDE71B4E6A683368012A32
:1011000019D19B03BBD5032173688B4313437360D1
:10111000FFF7BAF901900C2372681A406B689B00C4
:101120009A42B9D0FFF7B0F9019BC01A114B98420F
:10113000F1D90320A4E7022A02D19B01E3D49EE760
:101140009B07E0D49BE722689A43226022681A42F8
:1011500095D1A6E76368084A1340EA6813436360C1
:10116000A3E7C0460020024000100240E93A000810
:101170001000002088130000FFF8FFFF044B054A11
:101180005B685B055B0FD35C034A1068D84070470F
:1011900000100240F93A000810000020F0B5036882
:1011A00085B00500DB0328D580220021374C52058D
:1011B000E3690091134208D1E3691343E361E369F2
:1011C00013400393039B012300938027304E7F003D
:1011D00033683B4226D0C022236A920013402D4E32
:1011E00032D1236A1E406B681E43009B2662012B8E
:1011F00003D1E369284A1340E3612A68D30706D57F
:10120000032022490B6B8343A86803430B63002030
:10121000930617D510211D4A136B8B43E9680B43C6
:1012200013630FE033683B433360FFF72DF9019000
:1012300033683B42CFD1FFF727F9019BC01A6428DE
:10124000F6D9032005B0F0BD69680A409342C8D0C2
:101250008023226A206A11005B0203432362236A0F
:101260000E483140034023622162D307B9D5FFF70E
:101270000BF907000222236A1342B2D1FFF704F9E7
:10128000074BC01B9842F5D9DBE7C046001002406F
:1012900000700040FFFCFFFFFFFFFFEFFFFFFEFFBE
:1012A00088130000012203680720D9681143D96020
:1012B00099680140062902D019680A431A60002083
:1012C0007047704770477047704770470222036845
:1012D00010B51969040011420ED0D96811420BD023
:1012E000053A1A619B69043202779B0700D179E0C5
:1012F000FFF7E9FF002323770422236819691142CD
:1013000010D0D96811420DD0093A1A6107322277FC
:101310009A69C0239B0020001A4269D0FFF7D3FFCF
:101320000023237708222368196911420ED0D96857
:1013300011420BD0113A1A61DB690D32227720007D
:101340009B075BD0FFF7BFFF0023237710222368A2
:101350001969114210D0D96811420DD0213A1A6191
:1013600019322277DA69C0239B0020001A424BD041
:10137000FFF7A9FF0023237701222368196911428F
:1013800007D0D968114204D0033A1A612000FFF750
:1013900098FF802223681969114208D0D968114248
:1013A00005D0023AFF3A1A61200000F068F94022A5
:1013B00023681969114207D0D968114204D0813AD3
:1013C0001A612000FFF781FF20222368196911426A
:1013D00007D0D968114204D0413A1A61200000F0C8
:1013E0004DF910BDFFF76EFF2000FFF76DFF81E79D
:1013F000FFF768FF2000FFF767FF91E7FFF762FF45
:101400002000FFF761FF9FE7FFF75CFF2000FFF779
:101410005BFFAFE71D4A10B50368904206D08024F9
:10142000E405A04202D01A4CA0420CD17024A34380
:101430004C68234390420FD08024E405A0420BD097
:10144000134CA04208D0134CA04205D0124CA0422D
:1014500002D0124CA04203D1114C2340CC6823434C
:101460008024A3434C69234303608B68C3620B68E9
:101470008362904205D0084B984202D0074B9842B5
:1014800001D10B6903630123436110BD002C0140AE
:10149000000400400020004000440140004801409A
:1014A000FFFCFFFF70B504000120002C14D02500C4
:1014B0003D352B78DBB2002B05D122003C32137076
:1014C000200001F005FB022320682B70211DFFF78F
:1014D000A1FF012300202B7070BD000030B584688F
:1014E000034D0A431B022C4013432343836030BD4A
:1014F000FF00FFFFF8B5050002233C352A78040001
:101500001800012A16D02600012720683D362F70CA
:1015100033708368404A134083600B68402B65D06A
:1015200014D8102B0BD006D8002B08D00123002094
:1015300033702870F8BD202B01D0302BF6D17022EB
:1015400081689143693A13430B431AE0602B35D00D
:1015500019D8502BEAD14A68CB68016A046A1B018A
:10156000BC43F02704628469BC4323430A24A1439B
:101570000A43836102627022836893431A005723EF
:1015800013438360D2E7702B0DD0802292019342E7
:10159000CCD1CB684A688968FFF7A0FF8023226816
:1015A000DB01916807E0CB684A688968FFF796FF1E
:1015B0007723226891680B439360B7E710244B6848
:1015C000CA68016A154FA1430162846912033C4055
:1015D0002243A024016A82617022A1431B010B43B4
:1015E0000362836893431A006723C9E74A68CB689C
:1015F000016A046A1B01BC43F02704628469BC438E
:1016000023430A24A1430A43836102627022836850
:1016100093431A004723B3E78800FFFFFF0FFFFF44
:1016200070B5040002223C34257803001000012D1F
:101630001FD01D0070261B6801383D3520702A70B0
:1016400058689A68B0430E6830435860094883422E
:1016500006D08020C005834202D00748834204D1CF
:101660008020496882430A439A60012300202B703E
:10167000207070BD002C014000040040704770478E
:1016800070B504002569A36802682B436569C169C8
:101690002B4310683E4D0B432840034313605368AF
:1016A0003C48256A0340E06803435360A36990689F
:1016B0002B43394D2840034393600322374B384D69
:1016C0001B6B1340374AD05C80231B02994235D1F3
:1016D000082826D8FEF718FD05250B251D252525EC
:1016E0002000FFF74BFD636840005B0802E0636881
:1016F00058082D4BC0186168FEF710FD83B200201A
:101700001A00103AAA420FD901200023236663660B
:1017100070BDFFF77DFCE6E76368580880235B0235
:10172000E8E701200023EBE70F22190091430A00AC
:101730001B0721685B0F1343CB60E6E7082823D81B
:10174000FEF7E2FC05220A221A2222221D00FFF7E0
:1017500015FD63685B0802E063685808134BC01806
:101760006168FEF7DBFC83B200201A00103AAA423F
:10177000CAD82268D360C8E7FFF74AFCE9E7636884
:10178000580880231B02EAE701200023EDE7C0464A
:10179000F369FFFFFFCFFFFFFFF4FFFF00100240E0
:1017A000EFFF0000243500080024F40000127A0046
:1017B000436A30B5DA0706D50168284C4A682240EA
:1017C000846A22434A609A0706D50168244C4A6815
:1017D0002240C46A22434A605A0706D50168214C58
:1017E0004A682240046B22434A601A0706D5016802
:1017F0001D4C4A682240446B22434A60DA0606D5F3
:1018000001681A4C8A682240846B22438A609A06D7
:1018100006D50168164C8A682240C46B22438A6050
:101820005A0610D50168134D4A68046C2A402243B9
:101830004A6080225203944205D14A680E4C2240ED
:10184000446C22434A601B0606D502680B49536864
:101850000B40816C0B43536030BDC046FFFFFDFF62
:10186000FFFFFEFFFFFFFBFFFF7FFFFFFFEFFFFF1D
:10187000FFDFFFFFFFFFEFFFFFFF9FFFFFFFF7FF10
:10188000F7B5802704000E00150001933F01226880
:10189000D36933409B1B59424B41AB4201D00020DE
:1018A0001CE0089B0133F3D0FEF7EEFD019B089A84
:1018B000C01A2368824201D3002A10D11A68134942
:1018C0000A401A609A68A331FF318A439A60202344
:1018D0006367A3670023032070342370FEBD0421D7
:1018E0001A680A42D3D0DA693A42D0D01F621A6825
:1018F00006490A401A609A68A331FF318A439A6008
:1019000020236367A367E367E4E7C0465FFEFFFF4A
:10191000F0B587B00593436F04000D001700022057
:10192000202B49D10138002946D0002A44D08023F9
:10193000A2685B019A4204D12369002B01D10142C4
:101940003AD1230070331A780220012A34D00122C0
:1019500000261A702123E6676367FEF795FD2300D2
:1019600050331F80023303931F808023A2680490AA
:101970005B019A4204D12369B34201D12E001D00BC
:10198000230052331A88059B92B20093049B002ACD
:101990000AD140212000FFF773FF00280BD120233C
:1019A00070346360207007E0002280212000FFF780
:1019B00067FF002802D0032007B0F0BD2268002D89
:1019C0000BD133880236DB05DB0D1385039B039AAD
:1019D0001B88013B9BB21380D2E72B78013513851E
:1019E000F4E70000F0B587B00593836F04000D00A5
:1019F00016000220202B43D10138002940D0002AB4
:101A00003ED08023A2685B019A4204D12369002B57
:101A100001D1014234D1230070331A780220012A07
:101A20002ED0012200271A702223E767A367FEF752
:101A30002BFD230080215833A2681E8002330393BC
:101A40001E800490490102338A421DD12169B942A6
:101A500018D1204919801F88802300265B019A42F3
:101A600004D12369B34201D12E001D0023005A3353
:101A7000188880B2002810D120237034A360207011
:101A800007B0F0BDFF21E5E7002A04D12169002954
:101A9000F8D07F21DEE71F80DDE7059B0022009361
:101AA0002021049B2000FFF7EBFE002810D12368C3
:101AB0009B8C3B40002D08D133800236039B039A58
:101AC0001B88013B9BB21380D0E72B700135F5E7F3
:101AD0000320D5E7FF01000073B500260400C667A8
:101AE000FEF7D2FC236805001B681B0715D423688A
:101AF0001B685B070AD580210E4B00220093C903A7
:101B00002B002000FFF7BCFE002811D1202300206D
:101B10006367A367703420700BE08021054B3200AF
:101B20000093890303002000FFF7AAFE0028DED0FF
:101B3000032076BDFFFFFF0110B5041E01D1012077
:101B400010BD436F002B04D102007032137001F0FE
:101B500001F82423012122686367136820008B4366
:101B60001360FFF78DFD0128E9D0636A002B02D0D6
:101B70002000FFF71DFE236807495A6820000A402D
:101B80002A215A609A688A439A60012219680A4396
:101B90001A60FFF7A1FFD3E7FFB7FFFFF0B589B0E9
:101BA0001422002103A801F068F880201F4BC00315
:101BB00059699824014359615A699027024080204D
:101BC0000092009A596980020143596180215A6943
:101BD000C90202400192019A5A6924010A435A61DA
:101BE0005B69FF050B40124D029321003800002273
:101BF000029BFEF761FD00222800FB21FEF75CFD41
:101C000001260394002403A9380004960594069441
:101C1000FEF7A8FCFB2303A9280003930496059470
:101C20000694FEF79FFC09B0F0BDC04600100240CC
:101C30000004004810B5134B134C01222360134BD2
:101C4000200063600023E260A36023616361A361FD
:101C5000E3612362FEF712FE002801D000F044FD8C
:101C600000212000FEF788FF002801D000F03CFD95
:101C700000212000FEF7A6FF002801D000F034FD6F
:101C800010BDC04600540040A80000200E090020EE
:101C900010B5040088B01422002103A800F0EDFF65
:101CA000144B22689A4222D18021134C8902626926
:101CB00090200A4362616369C0050B400193019B58
:101CC000C023DB00039312230493113B05930233DB
:101CD000069303A901330793FEF744FC8021E269D0
:101CE00089030A43E261E3690B400293029B08B057
:101CF00010BDC0460054004000100240F0B5C5B011
:101D000001900D00012800D0E5E0784904A800F01A
:101D1000DFFFFA23764C5B003C2204A92000FFF78A
:101D2000F7FD744904A800F0D3FFFA2333225B00C7
:101D300004A92000FA26FFF7EBFD760003AF3B78FD
:101D40006B4C312B59D1C433FF33022204A920003C
:101D5000FFF7DEFD684904A800F0BAFFFA2343222A
:101D60005B0004A92000FFF7D3FD644904A800F03C
:101D7000AFFFFA2311225B0004A92000FFF7C8FD82
:101D80005F4904A800F0A4FFFA2311225B0004A914
:101D90002000FFF7BDFD5B4904A800F099FFFA237E
:101DA00011225B0004A92000FFF7B2FD564E04A8E3
:101DB000310000F08DFFFA23200000245B00122286
:101DC00004A9FFF7A5FD3C7003AF3B78313B032B23
:101DD00031D84E4904A800F07BFFFA23444F5B0042
:101DE0001B2204A93800FFF793FD20003138032897
:101DF00063D8FEF789F92B3B485500233B70FA2343
:101E000001229B0039002000FFF7ECFD404904A8A7
:101E100000F05EFF33003D2204A92000FFF778FDAB
:101E2000344904A800F054FF3300332204A92000F1
:101E3000FFF76EFD82E700233B70FA2301229B002F
:101E400039002B48FFF7CEFD3C78BDE7314904A8A7
:101E500000F03EFFFA2316225B0004A93800FFF7CA
:101E600057FD19232B60019845B0F0BD2A4904A8FD
:101E700000F02EFFFA2315225B0004A93800FFF7BB
:101E800047FD3223EEE7254904A800F021FFFA239D
:101E900015225B0004A93800FFF73AFD4B23E1E768
:101EA000310004A800F014FFFA2312225B0004A9F9
:101EB0003800FFF72DFD6423D4E7194904A800F08A
:101EC00007FFFA232E2238005B0004A9FFF720FD4C
:101ED00000230193C7E7134904A800F0F9FEFA2391
:101EE00032225B0004A90248F0E7C046283500080A
:101EF0003402002065350008D73500081B3600087D
:101F00002D3600083F3600085136000864360008B8
:101F1000993500088036000897360008AD3600086D
:101F2000C3360008F2360008F0B50500C3B00E0055
:101F3000012800D0A7E0554902A800F0C9FEFA2305
:101F4000534C5B00192202A92000FFF7E1FC514924
:101F500002A800F0BDFEFA2343225B0002A9200084
:101F6000FFF7D6FC4C4902A800F0B2FEFA2311227A
:101F70005B0002A92000FFF7CBFC484902A800F053
:101F8000A7FEFA2311225B0002A92000FFF7C0FC84
:101F9000434902A800F09CFEFA2311225B0002A92B
:101FA0002000FFF7B5FC3F4902A800F091FEFA239C
:101FB00012225B0002A92000FFF7AAFC3A4902A8FE
:101FC00000F086FEFA2311225B0002A92000FFF731
:101FD0009FFC002001AF3B78313B032B06D8313802
:101FE000032845D8FEF790F80D1D2A3700233B70D3
:101FF000FA2301229B0039002000FFF7F3FC387818
:10200000E8E72A4902A800F063FEFA2316225B00E3
:1020100002A92000FFF77CFC19233360280043B09D
:10202000F0BD234902A800F053FEFA2316225B00FC
:1020300002A92000FFF76CFC3223EEE71D4902A83D
:1020400000F046FEFA2316225B0002A92000FFF7EB
:102050005FFC4B23E1E7184902A800F039FEFA23A0
:1020600012225B0002A92000FFF752FC6423D4E790
:10207000124902A800F02CFEFA232D225B0002A9CF
:102080002000FFF745FC0025C8E7C04625370008BB
:1020900034020020D73500081B3600083F370008FF
:1020A0003F360008513600085137000863370008F2
:1020B0007A37000891370008A8370008BB370008B6
:1020C0000C230A78F0B513430B708023040087B00B
:1020D00003AD2B70543B13430E004D4F6B70052224
:1020E00064237C21FEF7B6FC3220FEF7D3F92A00E8
:1020F000009702237C212000FEF716FC3220FEF719
:10210000C9F92A00009702237C212000FEF70CFC6D
:102110000520FEF7BFF900972A0002237C2120004A
:10212000FEF702FC042373700C236B70FA239B00F0
:1021300000932A0002237C212000FEF7F5FB0123F7
:102140006B70FA239B002A0000937C21022320005D
:10215000FEF7EAFB0220FEF79DF906236B70FA23D7
:1021600002279B00B7702A0000937C213B002000CF
:10217000FEF7DAFB002304AD2B706B70FA239B0093
:1021800000932A003B00C4212000FEF7CDFB08236A
:102190002B70FA23FF269B006E702A000093C42147
:1021A0003B002000FEF7C0FB01232B7020236B7047
:1021B000FA239B0000932A003B00C4212000FEF775
:1021C000B3FB042305AD2B70FA239B006E702A002D
:1021D0000093C4213B002000FEF7A6FB03232B70D5
:1021E000FA239B006E702A000093C4213B0020005C
:1021F000FEF79AFBFA239B002F706E702A00009363
:10220000C4213B002000FEF78FFB07B0F0BDC046A5
:10221000881300007FB54023FA26040003AD2B701D
:10222000B6000134631E1B78002B00D17FBD6B709C
:102230002A00009602237C210148FEF775FBF0E797
:10224000A80000201FB58023002A00D0C023194316
:10225000802303AA1370FA239B00517000937C2102
:102260000223FEF761FB05B000BD00001FB580230F
:1022700003AA13707F3B5370FA239B0000937C21C9
:1022800002230448FEF750FB0220FEF703F905B0D5
:1022900000BDC046A800002010B50400CAB24548E1
:1022A000C0B00021FFF7CEFF601E0F2833D8424C8C
:1022B000FDF72AFF0813182333383D42474C515687
:1022C0005B60656A3D48FFF7A5FF3D49684600F041
:1022D000FFFCFA2320225B0019E03A48FFF79AFF3F
:1022E0003949F3E73948FFF795FF3949684600F067
:1022F000EFFCFA2321225B0009E03648FFF78AFF52
:102300003549684600F0E4FCFA231E225B0069466A
:102310002000FFF7FDFA40B010BD3048FFF77AFF0C
:102320002F49E3E72F48FFF775FF2F49CEE72F48E6
:10233000FFF770FF2E49D9E72E48FFF76BFF2E49B4
:10234000DFE72E48FFF766FF2D49CFE72D48FFF75F
:1023500061FF2D49BAE72D48FFF75CFF2C49C5E71F
:102360002C48FFF757FF2C49CBE72C48FFF752FFCB
:102370002B49BBE72B48FFF74DFF2B49A6E72B481E
:10238000FFF748FF2A49B1E72A48FFF743FF2A49E8
:10239000684600F09DFCFA231F225B00694620007E
:1023A000FFF7B6FA2549684600F092FCFA2322228C
:1023B0005B00ACE7A800002034020020E8390008E8
:1023C000E9370008E73900080A380008E63900084C
:1023D0002B380008E53900084D380008E4390008BA
:1023E0006C380008E33900088E380008E23900082C
:1023F000AF380008E1390008D1380008E03900089A
:10240000F0380008DF39000812390008DE3900080A
:1024100033390008DD39000855390008DC39000877
:1024200074390008DB39000896390008DA390008E9
:10243000B7390008D9390008EA3900080A3A000813
:10244000F0B5070087B000010D00FDF7F1FE0600B2
:10245000FFF70CFF184C3A002100684600F016FC0C
:102460002A00210003A800F011FC0022134C1100E7
:102470002000FFF7E7FE6846FFF7CCFE00220721A9
:102480002000FFF7DFFE0E48FFF7C4FE0022082100
:102490002000FFF7D7FE0B48FFF7BCFE00220D21FE
:1024A0002000FFF7CFFE03A8FFF7B4FE01213000A4
:1024B000FFF7F2FE07B0F0BD2D3A0008A80000209B
:1024C000303A0008323A000837B5094D01AC29000E
:1024D0000848FFF7F5FD29000322200000F0C4FBA7
:1024E00062782078A37812021B04104318433EBD83
:1024F00094000020A800002010B5102494B03022D1
:10250000002108A800F0B9FB22000021684600F075
:10251000B4FB2200002104A800F0AFFB02230C94BE
:1025200008930024013B08A80B93FEF76FFB0723D9
:10253000210068460093019402940394FEF79AFDEB
:10254000212304A8049306940794FEF727FE14B0F1
:1025500010BD0000F7B5FDF77BFFFFF7CDFFFFF7DC
:102560001DFB00F079FAFFF765FB00F0D7FA504C3D
:102570005049200000F0ACFBFA234F4D5B002622AF
:1025800021002800FFF7C4F94C49200000F0A0FB0F
:10259000FA2326225B0021002800FFF7B9F94849F9
:1025A000200000F095FBFA2321005B002622280082
:1025B000FFF7AEF94348FEF775FE20232A681B207B
:1025C00011680B43136000221100FDF775FF1B20FB
:1025D000FDF7A2FFFFF778FFFFF748FE00223A4819
:1025E0001100FFF72FFE3949200000F071FBFA239C
:1025F00025225B0021002800FFF78AF93448FFF705
:1026000009FE3448FDF746FF334C344E2100306854
:10261000FFF774FBB42021684000FDF709FE002598
:10262000070021688D4220DDFFF720FE00220421F3
:102630002548FFF707FE2A4F3800FFF7EBFD210082
:102640003068FFF771FCB42021684000FDF7F0FD11
:102650000025019021688D4218DDFFF707FE00225A
:1026600004211948FFF7EEFDE6E72800FFF7E8FE32
:10267000022000F025F9022000F05CF9380000F09B
:1026800035F81848FDF706FF0135CAE72800FFF7BF
:10269000D7FE022000F014F9022000F04BF9019857
:1026A00000F024F80F48FDF7F5FE0135D2E7C046EB
:1026B000F4000020343A0008340200205B3A00089D
:1026C000823A0008F4010020A8000020A93A00087E
:1026D000CF3A0008881300000C00002008000020FA
:1026E000E03A00081027000070470000B421F8B558
:1026F0000026714B49005843FDF79AFD07278025B6
:10270000340047436D00BE4200DBF8BD0120FDF7F9
:10271000C1FE072C00D9CDE02000FDF7F5FC041E1A
:10272000375069829BB4902001222900C005FDF733
:10273000C3FF8021902000220901C005FDF7BCFFE6
:10274000002220215D48FDF7B7FF002210215B48E1
:10275000FDF7B2FF01240136D5E7902001222900C0
:10276000C005FDF7A9FF8021902001220901C005C5
:10277000FDF7A2FF002220215048FDF79DFF002217
:1027800010214E48FDF798FF0224E4E79020002234
:102790002900C005FDF790FF80219020012209014A
:1027A000C005FDF789FF002220214448FDF784FF82
:1027B000002210214148FDF77FFF0324CBE7902042
:1027C00000222900C005FDF777FF8021902001221B
:1027D0000901C005FDF770FF012220213748FDF7F0
:1027E0006BFF002210213548FDF766FF0424B2E795
:1027F000902000222900C005FDF75EFF8021902077
:1028000000220901C005FDF757FF012220212B48B6
:10281000FDF752FF002210212848FDF74DFF052447
:1028200099E7902000222900C005FDF745FF80218F
:10283000902000220901C005FDF73EFF0122202162
:102840001E48FDF739FF012210211C48FDF734FF17
:10285000062480E7902000222900C005FDF72CFF08
:102860008021902000220901C005FDF725FF0022EC
:1028700020211248FDF720FF012210210F48FDF70B
:102880001BFF072467E7902001222900C005FDF700
:1028900013FF8021902000220901C005FDF70CFFE5
:1028A000002220210548FDF707FF012210210348DF
:1028B000FDF702FF00244EE751020000000400482B
:1028C000F8B5070000250224BD4200DBF8BD102644
:1028D000012221001648FDF7EFFE282000F014F930
:1028E000002221001248FDF7E7FE013E282000F0FB
:1028F0000BF9002EECD10720FDF7CCFD103601229C
:1029000021000B48FDF7D8FE282000F0FDF800223A
:1029100021000748FDF7D0FE013E282000F0F4F822
:10292000002EECD1C820FDF7B5FD0135CCE7C0463F
:1029300000040048F8B5070000250224BD4200DB72
:10294000F8BD4C26012221002D48FDF7B5FE1820C8
:1029500000F0DAF8002221002948FDF7ADFE013E23
:10296000182000F0D1F8002EECD11C20FDF792FDCC
:102970001036012221002248FDF79EFE182000F0AB
:10298000C3F8002221001E48FDF796FE013E1820E4
:1029900000F0BAF8002EECD10120FDF77BFD1036D7
:1029A000012221001648FDF787FE182000F0ACF840
:1029B000002221001248FDF77FFE013E182000F0A2
:1029C000A3F8002EECD10320FDF764FD10360122A0
:1029D00021000B48FDF770FE182000F095F800224A
:1029E00021000748FDF768FE013E182000F08CF832
:1029F000002EECD1C820FDF74DFD01359EE7C04605
:102A00000004004801200A4B82B099690143996192
:102A100080219A69490502400092009ADA690A43C6
:102A2000DA61DB690B400193019B02B07047C0463D
:102A3000001002407047FEE77047704710B5FDF781
:102A400017FD10BD10B50248FEF740FC10BDC04692
:102A5000F40100207047704710B586B010220021A5
:102A600002A800F00AF908220021684600F005F9E2
:102A7000154C164BB422236001236360002392009F
:102A80002000A360E2602361A361FEF70BFD002834
:102A900001D0FFF729FE802302A95B0120000293E9
:102AA000FEF728FD002801D0FFF71EFE002369462F
:102AB000200000930193FEF7B3FD002801D0FFF73B
:102AC00013FE06B010BDC046F40100200004004013
:102AD00007B50B4B02689A4210D10220094AD1690E
:102AE0000143D161D3690022034001930E301100EC
:102AF000019BFDF7E1FC1020FDF70EFD07BDC04670
:102B000000040040001002400022034B1B685A6280
:102B10005A6A8242FCD37047F40100200B480C4BE8
:102B200010B50360E1235B0243600C220023426185
:102B30008360C36003618361C36103624362FEF724
:102B4000FBFF002801D0FFF7CFFD10BD34020020AD
:102B50000038014010B5040088B01422002103A8F9
:102B600000F08BF8164B22689A4227D18020154B33
:102B7000C00199690143996180219A6989020240E3
:102B80000192019A5A6990200A435A615B69C00513
:102B90000B400293029B0C4B03A903930223049363
:102BA00001330693023B0793FDF7DCFC00221B2058
:102BB0001100FDF781FC1B20FDF7AEFC08B010BD35
:102BC0000038014000100240048000000D48854696
:102BD0000D480E490E4A002302E0D458C450043375
:102BE000C4188C42F9D30B4A0B4C002301E013604C
:102BF0000432A242FBD3FFF72EFF00F011F8FFF7DB
:102C0000A9FCFEE700100020000000207800002052
:102C10003C3B000878000020B8020020FEE70000DE
:102C200070B500260C4D0D4C641BA410A64209D1B2
:102C3000002600F05BFC0A4D0A4C641BA410A6425F
:102C400005D170BDB300EB5898470136EEE7B300ED
:102C5000EB5898470136F2E7343B0008343B000854
:102C6000343B0008383B0008002310B59A4200D1DD
:102C700010BDCC5CC4540133F8E7030082189342C2
:102C800000D1704719700133F9E700000EB410B598
:102C90009DB002A9029008610B48822488604861B7
:102CA000012040421FABC881084804CBA400006843
:102CB00001938C8100F076F80023029A13701DB006
:102CC00010BC08BC03B01847FFFFFF7F14000020B2
:102CD000031C0A7801311A700133002AF9D17047B8
:102CE000F0B58E6885B007000C00039201939E42F8
:102CF00039D890238A89DB001A4234D00325096928
:102D000023685B1A0293636902985D43EB0F5D19B8
:102D1000019B6D1001331B18AB4200D91D005305F8
:102D200032D52900380000F031FB061E09D10C23F2
:102D30003B6040230120A28940421343A38105B098
:102D4000F0BD029A2169FFF78FFFA389144A1A4048
:102D500080231343A381029B2661F61826606561D8
:102D6000019EED1AA560019BB34200D21E00320005
:102D70000399206800F0ADFAA36800209B1BA360B4
:102D800023689E192660DAE72A00380000F05CFB11
:102D9000061EE0D12169380000F0AEFAC7E7C04650
:102DA0007FFBFFFFF0B59FB0029005938B890F006A
:102DB00016001B0611D50B69002B0ED1402100F027
:102DC000E5FA38603861002805D10C23029A0138F1
:102DD00013601FB0F0BD40237B61002306AD6B6123
:102DE00020336B761033AB7634002378002B47D139
:102DF000A31B04930DD0A31B320039000298FFF7E8
:102E00006FFF431C00D1B5E06A69049B944663449C
:102E10006B612378002B00D1ACE0012200235242E9
:102E20006A6002A95432521801342B60EB60AB6027
:102E30001370AB65584E05222178300000F03EFA41
:102E4000621C002820D12968CB0604D5532302AE8A
:102E500020309B1918700B0704D553232B2002AE8A
:102E60009B19187023782A2B16D000200A21099B61
:102E70002278303A092A55D9002815D0099313E051
:102E8000252BB5D00134B0E70123801B834029688E
:102E900014000B432B60CDE7059B181D1B680590A4
:102EA000002B39DB0993140023782E2B0BD1637888
:102EB000621C2A2B3ED1059B02341A1D1B68059209
:102EC000002B34DB0793354E21780322300000F0CD
:102ED000F5F9002806D04023801B83402A6801347E
:102EE00013432B60217806222D48661C297600F0BA
:102EF000E5F9002846D02B4B002B2FD12968059BE4
:102F00000722C90528D59B189343083305936B699D
:102F1000039A9B186B6167E75B42EB6002230B43EC
:102F20002B60C0E74B4301349B180120A0E701232D
:102F30005B42C7E7002314000A201A006B60217867
:102F40003039092903D9002BBDD00792BBE7424392
:102F5000013452180123F2E70733D5E705AB00939C
:102F60003A00114B2900029800E000BF0390039B38
:102F70000133CCD1BB890B985B0600D429E7012033
:102F8000404226E705AB00933A00074B2900029820
:102F900000F07AF8EAE7C046013B0008073B00086A
:102FA0000B3B000800000000E12C0008F7B51500FD
:102FB00001938A680B6900900C00934200DA1300B9
:102FC00022002B6043321278002A01D001332B609B
:102FD00023689B0602D52B6802332B6006272368E3
:102FE0001F4027D0230043331B785A1E9341226889
:102FF000920630D42200019943320098089EB047CF
:10300000431C25D0062320682A68E1680340002578
:10301000042B03D18D1AEB43DB171D40A3682269F3
:10302000934201DD9B1AED180027BD4220D10020FC
:1030300010E00137E3682A689B1A9F42D2DA220027
:103040000123193201990098089EB047431CF0D122
:1030500001204042FEBD3020E118433108702100BC
:103060005A1C45310978A218433202331170C1E766
:10307000220001231A3201990098089EB047431C90
:10308000E6D00137D1E70000F0B58BB006920A0018
:1030900043320793059004920A7E0C00109B6E2A1F
:1030A00000D18FE017D8632A2CD008D8002A00D18D
:1030B00099E0582A54D026004236327029E0642A1A
:1030C00001D0692AF7D121681A68080623D5111D95
:1030D0001960156825E0732A00D188E008D86F2AA6
:1030E00029D0702AE7D1202209680A43226003E030
:1030F000752A20D0782ADED122007821453211703D
:103100006C4A30E00E001A684236111D19601368CF
:103110003370012379E04906D9D5111D19600023C8
:10312000D55E002D03DA2D23049A6D421370624B95
:103130000A2703932FE020681968050603D5081DA8
:1031400018600D6805E04006F9D50D68081D186087
:10315000ADB2594B082703936F2A18D00A2716E0FF
:1031600045310A70544A03921A682168101D18608C
:103170001568080622D5CB0702D520231943216004
:103180001027002D03D1202322689A4322602300B8
:10319000002243331A706368A360002B5CDB0422B7
:1031A000216891432160002D58D1049E002B64D0EA
:1031B0002600039B42361B7833705EE04806DAD562
:1031C000ADB2D8E709681A68080605D5111D19605F
:1031D000136862691A6006E04906F7D5111D196087
:1031E0001368A28A1A800023049E236154E01A689F
:1031F000111D1960166800216268300000F05EF849
:10320000002801D0801B6060636823610023049A5A
:10321000137041E02369320006990598079DA8477D
:10322000431C43D0236800259B070FD4099BE0680B
:1032300098423DDA18003BE022000123193206993A
:103240000598079EB047431C30D00135E368099AC2
:103250009B1A9D42F0DBE9E7002DA9D0049E2800CF
:103260003900FCF7E1FF039B013E5B5C28003370F3
:103270003900FCF753FF051EF1D1082F09D123684F
:10328000DB0706D563682269934202DC3023013EE6
:103290003370049B9B1B2361079B09AA00932100A9
:1032A000069B0598FFF782FE431CB3D101204042E4
:1032B0000BB0F0BD233B0008123B0008C9B28218D6
:1032C000904201D10020704703788B42FBD001303F
:1032D000F6E710B5884202D98B18984208D300232C
:1032E0009A4207D0CC5CC4540133F9E78B5C835419
:1032F000013AFBD210BD000070B50500002910D0C6
:103300000C1F2368002B00DAE418280000F0D4F822
:103310001D4A1368002B05D163601460280000F07B
:10332000CCF870BDA34209D9216860188342F3D15B
:1033300018685B6841182160EEE713005A68002A9C
:1033400001D0A242F9D919685818A0420BD12068BF
:103350000918581819608242E0D110685268411863
:1033600019605A60DAE7A04202D90C232B60D5E736
:1033700021686018824203D11068526841182160A8
:1033800062605C60CAE7C04698000020032370B505
:10339000CD1C9D43083506000C2D1ED20C25A942DC
:1033A0001DD8300000F088F8254A14682100002953
:1033B00019D1244C2368002B03D1300000F06AF8A7
:1033C00020602900300000F065F8431C2CD10C234C
:1033D0003000336000F071F803E0002DDFDA0C23D9
:1033E0003360002070BD0B685B1B1AD40B2B03D914
:1033F0000B60CC18256003E08C420ED1636813602B
:10340000300000F05AF8200007220B30231D9043B3
:10341000C31AE7D05A42E250E4E74B6863600C00FD
:10342000EEE70C004968C2E70323C41C9C43A0429A
:10343000E0D0211A300000F02DF8431CDAD1C6E7A5
:10344000980000209C000020F8B507000D00160031
:10345000002905D11100FFF799FF04002000F8BDF5
:10346000002A03D1FFF748FF3400F7E700F026F801
:103470002C008642F2D931003800FFF787FF041E86
:10348000ECD029003200FFF7EFFB29003800FFF7EE
:1034900033FFE3E7002370B5064C05000800236006
:1034A00000F014F8431C03D12368002B00D02B60DC
:1034B00070BDC046B4020020704770470B1F1B68E8
:1034C000181F002B01DA0B58C0187047054B02007B
:1034D0001968002901D104491960186882181A6016
:1034E0007047C046A0000020B8020020F8B5C046D2
:1034F000F8BC08BC9E467047F8B5C046F8BC08BC8E
:043500009E4670472C
:1035040002030405060708090A0B0C0D0E0F101020
:103514000102030405060708090A0B0C0D0E0F101F
:10352400000408022A2A2A2A2A2A2A2A2A2A2A2A91
:103534002A2A2A2A2A2A2049484D20504320505218
:103544004F4A45542050484F544F20333630202A98
:103554002A2A2A2A2A2A2A2A2A2A2A2A2A2A200AF1
:10356400002A2A2A2A2A2A2A2A2A2A2A2054415084
:10357400455220535552203120504F555220434F2D
:103584004E54494E55455220202A2A2A2A2A2A2AAC
:103594002A2A200A002A2A2A2A2A2A2A2A2A2A2ADB
:1035A4002A2A2A2A2A2A2A2049484D2050432050D0
:1035B400524F4A45542050484F544F203336302000
:1035C4002A2A2A2A2A2A2A2A2A2A2A2A2A2A2A2061
:1035D4000A0A00504C5553204C45204E4F4D425240
:1035E400452044452050484F544F532045535420C0
:1035F400494D504F5254414E542C20504C55532059
:103604004C452052454E445520534552412050527A
:1036140045434953200A0031292032352050686F30
:10362400746F73202E2E200A00322920353020504A
:10363400686F746F73202E2E200A003329203735CB
:103644002050686F746F73202E2E200A00342920B6
:103654003130302050686F746F73202E2E200A0092
:103664002A2A2A2A2A2A2A2A2A2A2A204F4B20208E
:103674002A2A2A2A2A2A2A2A2A200A004D4F44457D
:103684002032352050686F746F732041435449468B
:10369400200A004D4F44452035302050686F746F28
:1036A400732041435449460A004D4F444520373561
:1036B4002050686F746F732041435449460A002AAE
:1036C4002A2A2A2A2A2A2A2A2A2A2A2A2A2A2A2A56
:1036D4002A2A2A4552524F52202A2A2A2A2A2A2A98
:1036E4002A2A2A2A2A2A2A2A2A2A2A2A0A002A2A80
:1036F4002A2A2A2A2A2A2049484D204E4F4E204160
:1037040043544956452C20564F4952204543524173
:103714004E204C4344202A2A2A2A2A2A2A2A2A0AC0
:10372400000A2A2A2A2A2A2A2A2A2049484D2020FD
:103734002A2A2A2A2A2A2A2A2A0A0032292034351D
:103744002050686F746F73202E2E200A004F746807
:10375400657273292051554954202E2E200A004D9C
:103764004F44452035302050686F746F73204143B7
:10377400544946200A004D4F4445203130302050F2
:10378400686F746F732041435449460A004D4F4497
:1037940045203135302050686F746F732041435495
:1037A40049460A003429203230302050686F746F43
:1037B40073202E2E200A002A2A2A2A2A2A2A2A2A72
:1037C4002A2A2A2A2A2A2A2A2A2A2A5155495420C4
:1037D4002A2A2A2A2A2A2A2A2A2A2A2A2A2A2A2A45
:1037E4002A2A2A0A004156414E43454D454E54204B
:1037F4002D2D3E3E2020362C323520706F757220E0
:10380400313030200A004156414E43454D454E5417
:10381400202D2D3E3E202031322C3520706F7572C4
:1038240020313030200A004156414E43454D454E2B
:1038340054202D2D3E3E202031382C373520706FFA
:10384400757220313030200A004156414E43454DB7
:10385400454E54202D2D3E3E2020323520706F756C
:103864007220313030200A004156414E43454D45C7
:103874004E54202D2D3E3E202033312C32352070E5
:103884006F757220313030200A004156414E434555
:103894004D454E54202D2D3E3E202033372C3520CF
:1038A400706F757220313030200A004156414E430A
:1038B400454D454E54202D2D3E3E202034332C378B
:1038C4003520706F757220313030200A0041564126
:1038D4004E43454D454E54202D2D3E3E202035303F
:1038E40020706F757220313030200A004156414EED
:1038F40043454D454E54202D2D3E3E202035362C3B
:10390400323520706F757220313030200A004156F4
:10391400414E43454D454E54202D2D3E3E202036EC
:10392400322C3520706F757220313030200A0041FE
:1039340056414E43454D454E54202D2D3E3E2020AC
:1039440036382C373520706F757220313030200AAC
:10395400004156414E43454D454E54202D2D3E3E8B
:103964002020373520706F757220313030200A00E6
:103974004156414E43454D454E54202D2D3E3E204B
:103984002038312C323520706F7572203130302060
:103994000A004156414E43454D454E54202D2D3E7F
:1039A4003E202038372C3520706F7572203130302E
:1039B400200A004156414E43454D454E54202D2D7D
:1039C4003E3E202039332C373520706F75722031FC
:1039D4003030200A002A2A2A2A2A2A2A2A2A2A2A8B
:1039E4002A2A2A2A2A004156414E43454D454E541F
:1039F400202D2D3E3E202031303020706F757220F6
:103A0400313030200A002A2A2A2A2A2A2A2A2A2A53
:103A14002A2A20444F4E45202A2A2A2A2A2A2A2A98
:103A24002A2A2A2A2A2A2A0A002564002D003E006E
:103A34002A2A2A2A2A2A2020494E495449414C49F3
:103A4400534154494F4E2054494D3320202A2A2AA9
:103A54002A2A2A20200A002A2A2A2A2A2A20204915
:103A64004E495449414C49534154494F4E204932DF
:103A74004320202A2A2A2A2A2A2020200A002A2A05
:103A84002A2A2A2A2020494E495449414C49534163
:103A940054494F4E204750494F20202A2A2A2A2A87
:103AA4002A20200A002A2A2A2A2A2A2020494E4982
:103AB4005449414C49534154494F4E204C434420AE
:103AC400202A2A2A2A2A2A20200A002E2E2E50684A
:103AD4006F746F203336302E2E2E20002120444F59
:103AE4004E452021000000000000000000010203F8
:103AF40004060708090000000001020304232D3016
:103B04002B2000686C4C00656667454647003031E1
:103B14003233343536373839414243444546003030
:103B2400313233343536373839616263646566005F
:043B3400E90000089C
:043B3800C1000008C0
:103B3C000100000004000000010000003200000041
:103B4C0000127A00180000200000000000000000A5
:103B5C000000000000000000000000000000000059
:103B6C000000000000000000000000000000000049
:103B7C000000000000000000000000000000000039
:103B8C000000000000000000000000000000000029
:103B9C000000000000000000000000000000000019
:083BAC00000000000000000011
:0400000508002BCDF7
:00000001FF
